:020000040800F2
:100000006826002435040008793E0008313D0008C8
:10001000713E0008E9180008216000080000000097
:10002000000000000000000000000000F94200088D
:10003000C119000800000000B14000083943000861
:100040004F0400084F0400084F0400084F04000844
:100050004F0400084F0400084F0400084F04000834
:100060004F0400084F0400084F0400084F04000824
:100070004F0400084F0400084F0400084F04000814
:100080004F0400084F0400084F0400084F04000804
:100090004F0400084F0400084F0400084F040008F4
:1000A0004F0400084F0400084F0400084F040008E4
:1000B0004F0400084F0400084F0400084F040008D4
:1000C0004F0400084F0400084F0400084F040008C4
:1000D0004F0400084F0400084F0400084F040008B4
:1000E0004F0400084F040008000000004F040008FF
:1000F0004F0400084F0400084F0400084F04000894
:100100004F0400084F0400084F0400084F04000883
:100110004F0400084F0400084F0400084F04000873
:100120004F0400084F0400084F0400084F04000863
:100130004F0400084F0400084F0400084F04000853
:1001400000000000000000000000000000000000AF
:100150004F0400084F0400084F0400084F04000833
:100160004F0400084F0400084F0400084F04000823
:100170004F0400084F0400084F040008000000006E
:100180004F0400084F0400084F0400084F04000803
:100190004F0400084F0400084F0400084F040008F3
:1001A0004F0400084F0400084F0400084F040008E3
:1001B0004F0400084F0400084F0400084F040008D3
:1001C0004F0400084F0400084F0400084F040008C3
:1001D0004F040008B13E00084F0400084F04000817
:1001E0004F0400084F0400084F0400084F040008A3
:1001F0004F0400084F0400084F0400084F04000893
:100200004F0400084F0400084F0400084F04000882
:100210004F0400084F0400084F0400084F04000872
:100220004F0400084F0400084F04000800000000BD
:100230004F0400084F040008000000004F040008AD
:100240004F0400084F0400084F0400084F04000842
:100250004F0400084F0400084F0400084F04000832
:100260004F0400084F0400084F0400084F04000822
:100270004F0400084F0400084F040008000000006D
:100280004F0400084F0400084F040008000000005D
:10029000000000004F04000800F002F800F0BBF876
:1002A0000AA090E8000C82448344AAF10107DA45D1
:1002B00001D100F0B0F8AFF2090EBAE80F0013F068
:1002C000010F18BFFB1A43F0010318475C7A0000C6
:1002D0007C7A00000A444FF0000C10F8013B13F048
:1002E000070408BF10F8014B1D1108BF10F8015B8F
:1002F000641E05D010F8016B641E01F8016BF9D182
:1003000013F0080F1EBF10F8014BAD1C0C1B09D1D8
:100310006D1E58BF01F801CBFAD505E014F8016B4A
:1003200001F8016B6D1EF9D59142D6D370470000DC
:100330000023002400250026103A28BF78C1FBD8EE
:10034000520728BF30C148BF0B6070476E2900F0CC
:100350000382702900F04583662907F09A83652996
:1003600007F09783672907F09483612907F0938347
:1003700003681B0A28BF41F08001692900F0B081A1
:10038000642900F0AD81752900F0AA816F2900F081
:10039000D382782900F01183E92900F06D82E429E5
:1003A00000F06A82F52900F06782EF2900F0D08220
:1003B000F82900F010830368DB0928BF41F08001B1
:1003C000632901F0C780732901F0CC80E32901F093
:1003D000D780F32901F0DC80002070471FB507F0BB
:1003E0004BFB9DE8030000F04BFC01F04DF90400CD
:1003F0000020002107F02AFB401C60600020002143
:1004000007F00EFBE06000F095F81FBD10B500206E
:1004100001F0E6F810BD01F00AF91146FFF7DEFF22
:1004200006F04AFC01F000FA03B4FFF7EFFF03BC4B
:1004300000F0FCFB0948804709480047FEE7FEE75B
:10044000FEE7FEE7FEE7FEE7FEE7FEE7FEE7FEE784
:1004500004480549054A064B70470000014400085E
:1004600099020008681E00246826002468220024DF
:10047000682200241CB50C46064B7B44694600905C
:10048000204600F082F904460020694600F090F909
:1004900020461CBD330300000B460146184600F001
:1004A0006FBB10B5431C02E010F8011B71B181074E
:1004B000FAD14FF0013202C88C1A8C4314EAC211EF
:1004C000F9D0C01A0A0603D0C01E10BDC01A10BD54
:1004D0000A0401D0801E10BD0902FCD0401E10BDD0
:1004E0004FF0000200B5134694469646203922BFCD
:1004F000A0E80C50A0E80C50B1F12001BFF4F7AF18
:10050000090728BFA0E80C5048BF0CC05DF804EBF9
:10051000890028BF40F8042B08BF704748BF20F867
:10052000022B11F0804F18BF00F8012B7047704765
:100530007047704770B5064C7C44064D7D4404E01E
:100540002046016808448047241DAC42F8D170BDA4
:10055000387900003879000070B5064600F06CFB71
:10056000056806F10B0020F00704B4429CBF002090
:1005700070BD2B466A68BAB11068A04210D304F16E
:10058000080188423CBF5068586007D35168101971
:1005900041601168091B016058601460101D70BD36
:1005A00013465268002AE7D12146284600F054FB42
:1005B0000028DED170BD70B50446051F00F03CFB7D
:1005C0000068002C14BF446870BD002C18BFAC42FA
:1005D0003CBF20466468F8D301680A18AA4218BFD5
:1005E000456003D12A680546114401602868411915
:1005F000A1421CBF6C6070BD6168696021680844DD
:10060000286070BD10B500F01FFB006810BD10B56C
:10061000044600F019FB046010BD70B504468569FE
:100620000068C10601D5302600E02026C00707D0AB
:1006300070BDD4E9012130469047206A401C2062F9
:100640006D1EF6D570BD70B5044685690078C0078B
:1006500007D170BDD4E9012120209047206A401CB9
:1006600020626D1EF6D570BD09684A0501D540B2FD
:100670007047C905FCD500B2704709684A0501D525
:10068000C0B27047C905FCD580B2704770B50C4642
:100690000546012A05D02878800600D5EA6900239E
:1006A00002E0012305E05B1C934202D2E05C0028DB
:1006B000F9D1A869E618C01AA861286A1844286206
:1006C0002846FFF7AAFF04E0D5E9012114F8010B41
:1006D0009047B442F8D32846FFF7B5FF70BD00003D
:1006E0002DE9F0410646002410687529314616A50B
:1006F00010D0FFF7B9FF002802DA404213A507E047
:1007000031688A0701D512A502E0490704D511A571
:10071000012401E0FFF7B1FF00210A2206F12407BE
:1007200009E0B0FBF2FCB0FBF2F302FB1C0030303E
:1007300078541846491C0028F3D123462A463046EF
:10074000BDE8F04100F017BB000000002D000000E4
:100750002B0000002000000011680268006A5305A9
:1007600001D508700AE0D30501D5088006E013061C
:1007700003D5C217C1E9000200E0086001207047FC
:1007800001694A1C02610878704700B58FB0CDE955
:1007900001310021059105497944CDE90310114645
:1007A000684600F029F90FB000BD0000E5FFFFFF2B
:1007B0000A6802F8010B0A60704700002DE9FF5F2C
:1007C00015468A460446DFF8AC80F8440027D8E98D
:1007D00000103E46CDE9001010E03AF816106A46C7
:1007E00002A800F0D9FE411C07D02178890603D564
:1007F000E269391891420DD80744761C20788006AA
:1008000002D5E069B84205DDAE42E6DB3AF81600F3
:100810000028E2D1A069C01BA0612046FFF7FDFEC1
:10082000D8E90010CDE90010002017E03AF81810C0
:100830006A4602A800F0B0FEB0F1FF3F81460BD03F
:1008400000250DF1080B05E0D4E901211BF8050096
:1008500090476D1C4D45F7D308F10100B04280462A
:10086000E4DB206A384420622046FFF7ECFEBDE856
:10087000FF9F0000CE7200002DE9F0418046D21D9E
:1008800022F007020025D2E90002F52915A614D0AE
:10089000011E72F1000106DA0023D0EB030063EBC6
:1008A000020211A608E0D8F800108B0701D50FA6A8
:1008B00002E0490701D50EA601251146002408F1E2
:1008C000240704E000F012FA30323A55641C50EA72
:1008D0000102F7D12B46324621464046BDE8F041A1
:1008E00000F049BA000000002D0000002B000000BD
:1008F0002000000030B4002100F1240408E002F0E0
:100900000705D208303542EA4372DB086554491CBA
:1009100052EA0305F3D10468002310A2250708D585
:1009200004F020040C4304D0C46901230CA2641E0B
:10093000C46130BC00F01FBA10B5044621461068EF
:10094000FFF79BFE02462046BDE810400023D1E79A
:10095000D21D22F00701D1E90023CBE700000000FF
:1009600030000000F0B40D460188090502D5214C85
:100970007C4402E01F4C7C440E34002100F124062C
:1009800008E002F00F071209E75D42EA03721B0953
:100990007754491C52EA0307F3D102780023120767
:1009A00004D5702D06D009B1022311342246F0BCC3
:1009B00000F0E1B901231034F8E770B504460D46A4
:1009C00021461068FFF759FE024629462046BDE839
:1009D00070400023C6E7D21D22F00703D3E90023AD
:1009E000C0E70368126843F0200303600823C36173
:1009F0000023B7E7307100002DE9F05F8946044617
:100A00004FF0000ADFF874B1FB44C0F820A0204684
:100A1000E1688847002874D0252806D0D4E9012150
:100A20009047206A401C2062F1E700265F4620467E
:100A3000E16888472028054607DB312D05D2781963
:100A400010F8200C08B10643F1E7B00701D526F0F5
:100A50000406C4F81CA00027C4F818A02A2D09D049
:100A6000284606F0D5FF38B304EB8708303DC8F8B8
:100A7000185019E059F8041B204604EB87029161D5
:100A8000E1688847012F054618D1E069002820DA7F
:100A900026F020061DE0D8F8180000EB800005EBDA
:100AA00040003038C8F818002046E16888470546FD
:100AB00006F0AEFF0028EED1012F0AD02E2D08D16E
:100AC0002046E16888477F1C0546022F46F0200635
:100AD000C4DBA069002803DA404246F00106A061A9
:100AE000F00701D026F010066C2D0BD0682D09D030
:100AF0004C2D39D06A2D35D0742D35D07A2D33D088
:100B000016E038E0E1682F4620468847B84205469F
:100B100009D16C2F26D04FF48060E168064320464F
:100B20008847054604E06C2F1AD04FF480700643C6
:100B30000DB3A5F14100192802D8203546F400660E
:100B40004A462946204626604E46FFF7FFFB80B105
:100B500001280BD0F61D26F0070000F1080956E722
:100B60004020E4E78020D8E70020D6E706F104091A
:100B70004DE7284652E7206ABDE8F09FC0700000AC
:100B80002DE9F041074615460E461020FFF7E4FC1C
:100B900004000AD06760C4E9026500F051F80168FA
:100BA000216004600020BDE8F0810120FBE7000027
:100BB00030B44FF0013C50F8042BCCFA52F451F809
:100BC000043BD51A20D1FCB950F8042BCCFA52F4CE
:100BD00051F8043BD51A17D1B4B950F8042BCCFA0C
:100BE00052F451F8043BD51A0ED16CB950F8042BCD
:100BF000CCFA52F451F8043BD51A05D1002CDAD0C6
:100C000030BC4FF00000704729BAB1FA81F111F001
:100C10001801D1F120008440F2D1CA40CB4012F03B
:100C2000FF0213F0FF0330BCD01A704701491820AF
:100C3000ABBEFEE72600020000487047F00100242A
:100C4000004870472002002400487047E801002453
:100C5000704770477047704738B504460A46002011
:100C60006946AFF30080002808BF38BD02460099EE
:100C7000204600F00DFD012038BD012000F0E2BD4E
:100C8000F8B5AFF30080054600200C46102000BFE9
:100C90000646A819A0420DD9324669460020AFF396
:100CA0000080070008BF00F0CDFD0098A04218BFEB
:100CB0000546C419FFF7C0FF05600746F01D20F088
:100CC00007004619284600F00AF8B44208BFF8BDEC
:100CD000A21B31463868BDE8F84000F0D9BC0021BD
:100CE0000160C0E9011070471020704730B5B0F1C5
:100CF0000A0271F100034FEA900E4EEA817EB0EBDA
:100D00000E0061EB91014FEA101E4EEA017E10EBDE
:100D10000E0041EB11114FEA102E4EEA016E10EB5E
:100D20000E0041EB11214FEA104E4EEA014E10EB3E
:100D30000E0041EB1141401841F100014FEAD00093
:100D400040EA41704FEAD1014FEA810444EA9074CD
:100D500010EB800544EB01046D1944EB0404521BB5
:100D6000A3414FF0000348BF0A3200D530BD401CFC
:100D700041F1000130BD2DE9F0470D4699469246FC
:100D8000044600F124080168880604D5E06921F0D2
:100D90001001216000E00120A84201DD471B00E0B6
:100DA0000027A1697A1902EB0900081AA0612078CE
:100DB000C00602D42046FFF730FC002608E0D4E944
:100DC00001211AF806009047206A401C761C206218
:100DD0004E45F4DB2078C0060AD52046FFF71DFCFF
:100DE00006E0D4E9012130209047206A401C2062AF
:100DF000381EA7F10107F4DC07E0D4E9012118F857
:100E000005009047206A401C2062281EA5F10105BC
:100E1000F3DC2046FFF717FC2078000602D50220FD
:100E2000BDE8F0870120FBE72DE9FF4F0C461E4689
:100E30004FF0FF378BB0D2E90001DDF860800A90F7
:100E40008A46C1F30A5505B93D46002108464FF0D0
:100E50000000BAF1000F00F4400005DA00EB80005A
:100E60004FF4400101EA50004FEA9059B9F1010FE7
:100E700000DDB9460A9850EA4A000ED044F61050F8
:100E8000A5F2FF3545432F14B8F1000F1ED075426F
:100E9000291E1EDDC9F100021CE0B8F1010F4FF060
:100EA000000001D0302103E0F24305E02154401C52
:100EB000B042FBDB30460022002121540B99C1F8DF
:100EC0000880C1E900200FB0BDE8F08FBD1B6D1C8C
:100ED000DEE74A4600DA694206A800F033FC06ABBA
:100EE00093E8070003AB83E8070050460A9905F032
:100EF0006DFF8DE80700A0F500501F3800900398A3
:100F0000002D0ADD42F21F014A460844002303A9CE
:100F10000390684606F0D6F909E0A0F500504A466D
:100F20001F38002303A90390684606F0E0F98DE816
:100F300007000004000C03D04FF0FF30410800E030
:100F40001046B8F1000F03D00022009215461EE0B3
:100F5000751E05D4FFF7CAFE303262556D1EF9D5F5
:100F6000B3460122084302D000227F1C04E020780F
:100F7000302801D100227F1E002A099784D01DE06D
:100F8000112D07DAFFF7B2FE303262556D1C50EAC0
:100F90000102F5D1084302D00098C8B10EE000214B
:100FA000681E05E0235C625C63542254401E491CA9
:100FB0008142F7DBAB46A81B401E0990002004F8D5
:100FC0000B000B98099AC0F80880C0E9002B7AE75B
:100FD00011264FF0000857E72DE9F04F88460446E8
:100FE000D21D22F0070191B0D1E90001CDE90A013B
:100FF00006F0B4FA02460B98C00F01D02D2007E08E
:101000002068810701D52B2002E0202101EAC000E1
:10101000032A099001D0072A05DB034641462046F2
:1010200000F050FB0BE12078800601D5E06900E07C
:101030000620B8F1650F814606D0B8F1660F18D0CA
:10104000B8F1670F70D131E00020B9F1110F0090B5
:1010500001DB112301E009F101030AAA01A90CA88F
:10106000FFF7E2FEDDE90C70002609F10105834679
:1010700047E001204B4600904FF000470AAA01A923
:101080000CA8FFF7D1FEDDE90DB00C995D460026F6
:1010900010B909F101000D18B9EB050003D4C0F136
:1010A000FF3609F10105A5EB09002BE0B9F1010FAD
:1010B00001DA4FF001090020B9F1110F0090484604
:1010C00001DD112300E003460AAA01A90CA8FFF7DD
:1010D000ABFEDDE90C704D46002683462078000704
:1010E0000AD4AB4500DA5D4601A8012D04DD4119A3
:1010F00011F8011C302907D04F4502DA17F1040F0F
:1011000004DA012082460FE06D1EEEE7002F02DCBC
:10111000ED1B3E4403E0781CA84200DD7D1CB81B9B
:1011200000F1010A4FF000472078000703D4AA45D8
:1011300001DB4FF0FF3A0021B7F1004F0DF14308FA
:101140008DF8431024D002202B23002F01DA7F4298
:101150002D230A21021EA0F1010000DC5FB197FBE4
:10116000F1FC97FBF1F201FB1C7C17460CF1300CF3
:1011700008F801CDEEE7A8F1010003702188090508
:1011800001D5452100E06521A0F1010800F8011C0E
:1011900009980FA9A1EB0807FF1D00B10120411913
:1011A00001EBEA70A1693844081A401EA06120785A
:1011B000C00602D42046FFF730FA099828B1D4E9D6
:1011C00001219047206A401C20622078C00622D569
:1011D0002046FFF722FA1EE0002E04DBB34502DDB5
:1011E00001A8805D00E03020D4E901219047206A09
:1011F000401C2062761CAAF101005FEA000A0AD1B5
:1012000000F042FAC0680168405CD4E901219047CF
:10121000206A401C2062281EA5F10105DCDC07E0E5
:10122000D4E9012118F8010B9047206A401C206284
:10123000381EA7F10107F3DC2046FFF704FA03206C
:1012400011B041E62DE9F04F04460D46D21D22F0C3
:10125000070089B0D0E900974846394606F07EF984
:101260000246F80F01D02D2307E02068810701D541
:101270002B2302E0202101EAC0038DF820300BB1BE
:10128000012000E00020032A824601D0072A04DB67
:101290002946204600F016FA3FE12078800601D466
:1012A0000D2500E0E569C7F30A560D2D49DA002146
:1012B0004FEA175B08464FF00000002F00F4400093
:1012C00007DA00EB80004FF4400100EBD07001EA38
:1012D00060008115012901DD4FF0FF3100224FEA46
:1012E000850CBCF1180F06D31346ACF118004FF073
:1012F0008052C24003E04FF4801323FA0CF30CF148
:101300000C0CBCF1200F04D3ACF1200C09FA0CF04A
:1013100001E007FA0CF000294FF0004801DD18B990
:101320000FE00ED140450CD319EB02095F4121B902
:10133000404502D19F4329EA0209BBEB175F00D069
:10134000761C2088000502D57B48784402E07A4864
:101350007844193808AA302302F80A30037C0AF1CD
:101360000101002E0AF1020A53546A4602DC4FF0D2
:10137000300101E04FF031014FF001088DF800100D
:1013800002D0A6F2FF3603E059EA470100D06B4EC7
:10139000002D02DC2178090704D54FF002082E2128
:1013A0008DF80110C44600210BE0C7F303433F0151
:1013B000C35C491C6D1E02F80830052908F10108BC
:1013C00001DA002DF1DC00210CE000EB1973491C5F
:1013D0001B786D1E082902F808304FEA091908F138
:1013E000010801DA002DF0DC21688B0602D516E039
:1013F000A8F10108E04505DD02EB080313F8013C04
:10140000302BF5D0B8F1000F09DD02EB080313F81B
:10141000013C2E2B03D1090701D4A8F10108002DAE
:1014200005DD3E2102F808106D1E08F10108407C20
:10143000002E02F8080008F1010804DA2D20764297
:1014400002F8080002E02B2002F808000A214FF4FD
:101450007A70864208F101080BDB96FBF0F330331B
:1014600002F8083096FBF0F308F1010800FB136660
:1014700001E0642E0CDB642096FBF0F3303302F8BD
:10148000083096FBF0F308F1010800FB136601E059
:101490000A2E06DB96FBF1F0303002F8080008F166
:1014A000010896FBF1F001FB1060303002F80800F3
:1014B000A16908F1010808EB050202EB0A00081A0D
:1014C000A0612078C00602D42046FFF7A6F8216A62
:1014D00008AE01EB0A00206204E0D4E9012116F80D
:1014E000010B9047BAF1010AF7D22078C00602D565
:1014F0002046FFF792F86E4609E016F8010B3E28E9
:101500000FD0D4E901219047206A401C2062B8F135
:101510000108F2D22046FFF796F809B00320BDE893
:10152000F08F206A2844206203E0D4E901213020B2
:1015300090476D1EEBD3F8E7C567000002FCFFFF84
:1015400010B5436913B1AFF3008001E0FFF79EF8D7
:10155000012010BD127800F124010A7000224A70A7
:101560000122EDE711684FF0FF32E9E710B543695A
:1015700013B1AFF3008001E0FFF720F9012010BDA7
:10158000128800F1240182840022C2840122EDE746
:1015900011684FF0FF32E9E72DE9F04116460C469D
:1015A000054600F069F8036893F80101012807D0A7
:1015B000FF2C12D8185D80B101202C70BDE8F0819D
:1015C000D3F807013246214603F20713C71828460D
:1015D000BC46BDE8F041002360474FF0FF30EDE727
:1015E0002DE9F0410646FFF72BFB8046454613E008
:1015F00016B1E068B0420ED120682860D4E901013C
:10160000D8F8007088472046FEF7D5FFD8F80000CC
:10161000B842EBD100E025462C68002CE8D1BDE8AB
:10162000F081000000487047E801002470477546CB
:10163000FFF7F8FFAE4605006946534620F0070065
:10164000854618B020B5FEF703FFBDE820404FF0F7
:1016500000064FF000074FF000084FF0000BAC46BB
:10166000ACE8C009ACE8C009ACE8C009ACE8C00906
:1016700021F007018D46704710B500F005F8001DF8
:1016800010BD00BFC9630000004870470802002475
:10169000034640688C46002818BF88423CBF03467A
:1016A0004068F8D318681844884207D00CF103004A
:1016B00020F00700001D411A521A0146081D0A6059
:1016C000FEF779BF2DE9F0411F4604460326016865
:1016D000072A01F4006004DB08B116A505E016A591
:1016E00003E008B115A500E015A521F01000206069
:1016F000A069C01EA0610FB1401EA0612046FEF788
:101700008CFF4FB1D4E9012138469047206A401C34
:101710002062C01C206206E0206AFAE7D4E90121B9
:1017200015F8010B9047761EF8D22046FEF78BFF86
:10173000BDE8F0814E414E006E616E00494E46009C
:10174000696E66002DE9F047814616468AB0354835
:1017500078440DC88DE80D0032487844801C03ACF5
:101760000DC884E80D0041F69B300844372190FBFA
:10177000F1F290FBF1F5A5F1800501FB12041B3C91
:1017800002D56442012000E00020DFF898A08046E6
:101790000027FA44AAF1BE0A0EE0E0070AD032465A
:1017A000684607EB470101230AEB810105F09FFD25
:1017B0008DE8070064107F1C002CEED1194F7F4488
:1017C000AE3F19E0E80715D007EB04100DF1180A39
:1017D00090E80E008AE80E00C068F04201D1981926
:1017E00008903246012306A903A805F080FD03AB4B
:1017F00083E807006D10641C002DE3D14FF0010356
:1018000032466946B8F1000F03A802D005F05AFD30
:1018100001E005F06CFDC9E90001C9F808200AB033
:10182000BDE8F0875064000010B50446AFF30080B7
:101830002046BDE81040FEF7F7BD002801D0FFF7B5
:10184000F5B9704710B500F01DF8BDE81040FFF77E
:10185000F4BF70B505460C460A2000E06D1C00F090
:1018600039F835B128780028F8D102E0641C00F07E
:1018700031F814B120780028F8D1BDE870400A2072
:1018800000F028B810B5012805D0002103A0FFF70B
:10189000E0FF012010BD09A1F8E7000053494752BD
:1018A000544D454D3A204F7574206F662068656130
:1018B00070206D656D6F7279000000003A204865F8
:1018C0006170206D656D6F727920636F72727570D3
:1018D0007465640008B569468DF800000320ABBE4E
:1018E00008BD000000000000FEE70000000000004E
:1018F000002070470000000000207047000000003A
:1019000010B541F2347440F66C61C2F20044C2F288
:1019100000410022204602F09BFF40F26C6120460D
:10192000C2F2004102F088FF002010BD000000005C
:1019300010B541F234740146C2F20044204602F070
:101940007BFF204602F05CFF002010BD000000007D
:1019500000207047000000002DE9F04381B041F203
:1019600034778846C2F200478146D7F8BC4200F07F
:101970004BF90646002500BFD4F8140240B100F030
:1019800043F9801B65F100010B3871F10000F3DBB6
:10199000D7F8BC02D0F8140218B1012001B0BDE89C
:1019A000F08341F234764946C2F200464246304660
:1019B00002F04EFF304602F0DFFF01B0BDE8F083D9
:1019C0007047000000000000EFF3108072B600BF07
:1019D000FEE7000000000000B0B54EF60001C1F6C1
:1019E000F17108688A68801808BFB0BD40F26015C0
:1019F0004C68C2F200450822A91C02F09DF905F1CD
:101A000012010422204602F097F9B0BD0000000048
:101A1000B0B5044600F0F8F840F2DC110546C2F219
:101A20000041621C097818BF0C4400BF00F0ECF8BC
:101A3000401BA042FAD3B0BD2DE9F04F83B00C6833
:101A4000002C00F0C68000F1264242F2004702F16D
:101A5000FF72C5F602074FEAB22201920A22B8428B
:101A600008BF0922002500274FF0010A009209E073
:101A70000C68043734FA0AF20AF1010A05F102058A
:101A800000F0A780AAF10109012202FA09FE14EA76
:101A90000E08EDD0D1F804B00BF00304A4F1010C52
:101AA000BCF1010F11D803228668AA40CB6826EA50
:101AB0000202AB401A438260CBF30013426822EA71
:101AC0000E0203FA09F31A434260032C1ED00323CB
:101AD000C268AB40022C22EA03028B6803FA05F3CA
:101AE00042EA0302C26011D16FF0030207F01C0644
:101AF00002EA59020F23024403FA06F4D2F820C086
:101B00000B692CEA0404B3402343136203230268E5
:101B1000AB404E689A4306F00303AB4016F4403FD7
:101B200042EA03020260A3D044F2F44340F2084EBA
:101B3000C5F60203C5F6000E1A6842F002021A60EA
:101B40001A6807F00C0302F002020292029A29F0CE
:101B50000302019C009E092C38BF26460F2452F830
:101B60000EC09C402CEA040406FA03F34FF0B04C7C
:101B7000234342F80E30DCF800204B6842EA0806A6
:101B8000DC0258BF22EA08069C02CCF8006040F252
:101B9000040CC5F6000CDCF8002042EA080658BF29
:101BA00022EA08069C03CCF80060DCF8802042EAB8
:101BB000080658BF22EA0806DB03CCF88060DCF890
:101BC0007C2042EA080658BF22EA0806CCF87C606E
:101BD0004EE703B0BDE8F08F426902EA010391438A
:101BE00041EA034181617047002A08BF090481610D
:101BF000704700000000000041F20000C5F6004000
:101C00000068000C7047000041F66060C2F20040BE
:101C1000006870470000000040F2DC1041F660618F
:101C2000C2F20040C2F2004100780A681044086025
:101C3000704700000000000080B5032000F080F82D
:101C400001F026FC44F2184147F6BC33C5F6020108
:101C5000C0F600030A68096801F00F01C2F303220D
:101C6000595C9A5C01F01F0102F01F02D04040F263
:101C70002002C2F2004220FA01F1116040F21C0180
:101C8000C2F2004108600F2000F00AF800281CBFD3
:101C9000012080BD00F030F8002080BD0000000071
:101CA000B0B540F2DC11C2F20041097801B304463C
:101CB00040F21C00C2F200404FF47A72B2FBF1F124
:101CC0000068B0FBF1F001F07BFF0F2C4FF0010535
:101CD0000CD858B94FF0FF3000222146002500F003
:101CE0001FF840F2E010C2F2004004602846B0BD88
:101CF0000120B0BD0000000081B044F2F440C5F600
:101D00000200016841F002010160006800F0020079
:101D10000090009801B0704780B504F011FF80BDBD
:101D200070B514460D46064604F01AFF29462246B1
:101D300002F0A6F80146304604F01AFF70BD00001C
:101D400080B504F029FF80BD01680122C0F8FC23A2
:101D5000002280F8F423886940F000608861486DB3
:101D600040F08052002042F003024A6570470000B4
:101D700070470000000000000268002051627047B8
:101D800010B5D0F800C0DCF82400D9B1DCF8283058
:101D9000B1F1010E00EB13430CD00021002000BF75
:101DA0000CEB81010130D1F80441C1B28E4503EB47
:101DB0001443F5D80CEB8E0043EA0241C0F804113D
:101DC000002010BD40EA0240CCF82800002010BDE1
:101DD00080B5D0F8040403F07FF880BD0000000057
:101DE00080B5C1EBC10200EB8202D0F80404926C12
:101DF00002F0E6FF80BD000080B5C1EBC10200EB40
:101E00008202D0F80404D2F8082203F02DF880BD35
:101E100080B5D0F8040403F063F880BD0000000032
:101E200010B5044601F00F000A06C0EBC00104EB38
:101E3000810205D402F5FE71002382F8FD3104E031
:101E400002F13C01012382F83D3094F8BC23087074
:101E5000012A01D1022010BD012084F8BC032068B2
:101E600003F02EFC002084F8BC0310BD000000002D
:101E7000B0B5044601F00F006268904201D901201C
:101E8000B0BD090609D4C0EBC001002304EB8102F8
:101E900002F5FE7182F8FD3108E0C0EBC0010123BC
:101EA00004EB810202F13C0182F83D3094F8BC233E
:101EB00000258D70012A087001D10220B0BD0120DB
:101EC00084F8BC03206803F0CBFD284684F8BC539B
:101ED000B0BD00000000000001F00F01C1EBC10126
:101EE00000EB8100D0F814027047000000000000F1
:101EF000B0B5054601F00F000C06C0EBC00105EBC4
:101F0000810C05D40CF5FE7100248CF8FD4104E031
:101F10000CF13C0101248CF83D404C7808708A603B
:101F2000002CCB7018BFC880022B01D10020087193
:101F300095F8BC03012801D10220B0BD012085F82D
:101F4000BC03286803F0F0FA002085F8BC03B0BD9C
:101F500080B501F00F0CCCEBCC0100EB810E002121
:101F6000CEE984310369CEF808228EF8FD11012BE9
:101F70008EF8FCC10EF5FE7108BFCEF80C22BCF144
:101F8000000F0068DAB203D003F0BAFD002080BD74
:101F900003F0B6FC002080BDB0B5044601F00F058B
:101FA0004068854201D90120B0BD080609D4C1EBC3
:101FB000C100002204EB800000F5FE7180F8FD21D5
:101FC00008E0C5EBC500012204EB800000F13C01F4
:101FD00080F83D2094F8BC2301208870012A0D7000
:101FE00001D10220B0BD84F8BC03206803F060FD7D
:101FF0002DB9217C04F57172206803F001FD0020E9
:1020000084F8BC03B0BD0000B0B501F00F0CD0F8EF
:1020100010E00024BEF1010FCCEBCC0100EB8105F8
:10202000294601F83CCF8C614FF001044C70CA6026
:102030004B6108BFEA64BCF1000F00685FFA8EF2E2
:1020400003D003F05DFD0020B0BD03F059FC00207B
:10205000B0BD0000000000002DE9F04F81B0D0F8C5
:1020600000908246484603F087FE10B101B0BDE8FB
:10207000F08FDAF8000003F0AFFE0028F6D0DAF8AF
:10208000000003F0A9FE800705D5DAF800004169D9
:1020900001F002014161DAF8000003F09DFEC00684
:1020A00041D5DAF80000816921F010018161D9F889
:1020B000204004F00F05C4F3434006281CD002283A
:1020C0002BD147F6F070044027D0C5EBC50022099C
:1020D0000AEB80054846D5F8081203F081FED5F8D2
:1020E0000802D5F8141200EB1410C5F8080201EB31
:1020F0001410C5F8140210E00AF571710822484660
:1021000003F06EFEC5EBC500C4F30A110AEB8000B4
:10211000D0F814221144C0F81412DAF800008169D2
:1021200041F010018161DAF8000003F055FE000370
:1021300046D5DAF8000003F02BFE002840D0064612
:1021400009F530674FF000084FF0010B002508E05B
:10215000B8EB560F05F101054FEA560607F12007C7
:102160002ED0F007F4D0E9B2DAF8000003F02CFE2C
:102170000446C00708D120070ED4E00614D4A006F8
:1021800016D4A004E4D517E050462946C7F808B095
:1021900001F0BEFE2007F0D50820B8605046294661
:1021A00001F08EFEE006EAD51020B860A006E8D562
:1021B0002020B860A004CBD54FF40050B860C7E72A
:1021C000DAF8000003F008FE400372D5DAF80000E8
:1021D00003F0D6FD00286CD0064609F510640AF11C
:1021E0004408002500270AF5717000900BE000BF3D
:1021F000B5EB560F07F101074FEA560604F120042C
:1022000008F11C0855D0F007F2D05FFA87FBDAF826
:102210000000594603F0C4FD0546C00716D1280743
:102220003AD4E8063CD468063ED4A80705D548460B
:10223000394603F06DFD0220A06028064FF000052E
:10224000D6D55046394601F0CFFED1E707F00F0052
:10225000012202FA00F0D9F8341821EA0000C9F886
:102260003408A260DAF8100001280FD1D8E9000183
:102270000844C8F804004FB9D8F80C0030B9DAF8AF
:1022800000000121009A03F0BBFB00BF50465946F5
:10229000FFF7A6FD2807C4D50820A060E806C2D530
:1022A0001020A0606806C0D54020A060A807BED45A
:1022B000C3E7DAF8000003F08FFDB0F1FF3F1ADC4E
:1022C000D9F8040820F00100C9F804089AF8F403CA
:1022D000012807D100208AF8F40300215046FFF7B7
:1022E00047FD02E0504600F033FADAF80000416999
:1022F00001F000414161DAF8000003F06DFD0005D6
:102300000CD5D9F80808C00702D0504600F070FA82
:10231000DAF80000416901F400614161DAF8000077
:1023200003F05AFD000118D5DAF80000416901F008
:10233000006141619AF8F41319B1504600F058FA5F
:102340000BE001218AF8F413406D0121C0F38300F2
:10235000CAF8F8035046FFF70BFDDAF8000003F067
:102360003BFDC0045BD5D9F80408102120F0010022
:10237000C9F80408DAF8000009F5006403F0C8FCA5
:10238000DAF80400F0B109F51060DAF80410002260
:102390004FF67F338360013207688A4227F40017C3
:1023A0000760C0F80832D0F8007227F40017C0F8B0
:1023B0000072D0F8007247F00067C0F8007200F1B8
:1023C0002000E7D3E06940F00110E061DAF8300066
:1023D00040B1D4F8840040F00B00C4F8840004F14C
:1023E000440006E0606942F22B010843606104F199
:1023F000100001680AF5717241F00B01016020685C
:1024000020F4FE6020609AF81010DAF8000003F063
:10241000F7FADAF80000416901F480514161DAF815
:10242000000003F0D9FC80041CD5DAF8000003F0AA
:10243000C7F8DAF8000003F08FFCCAF80C00DAF8ED
:10244000004000F0FDFF9AF80C200146204603F002
:102450003FFD504600F064F9DAF80000416901F4EC
:1024600000514161DAF8000003F0B6FC000708D51E
:10247000504600F075F9DAF80000416901F00801F2
:102480004161DAF8000003F0A7FCC00209D5002181
:10249000504600F03DF8DAF80000416901F480117F
:1024A0004161DAF8000003F097FC800209D50021B1
:1024B000504600F035F8DAF80000416901F40011E7
:1024C0004161DAF8000003F087FC400008D550466F
:1024D000FFF77EFCDAF80000416901F080414161BC
:1024E000DAF8000003F078FC40077FF5BFADDAF8BA
:1024F00000004468600702D55046FFF789FCDAF80F
:10250000000041682143416001B0BDE8F08F000048
:1025100080B5D0F8040402F043FD80BD0000000047
:1025200080B5D0F8040402F04BFD80BD000000002F
:102530002DE9F04F8BB0002800F087800446056835
:1025400090F8BD0328B9002084F8BC03204600F0B1
:1025500093F8032084F8BD03E86BC00501D4002084
:102560002061206803F0C4F920680A9004F1040E89
:1025700004F11C0AD4E90C509EE80E589AE8C007F2
:10258000CDE9085003A88DE8005880E8C0070A98F4
:1025900003F026F8002855D120680021002503F01B
:1025A00047FC6168C1B1616801200023002200BFBF
:1025B000C3EBC30304EB8307D3B287F83C2001329B
:1025C000A7F84230D3B287F83D00994287F83F50D0
:1025D0007D64BD643D65EBD8B1B1002000230022CD
:1025E000C3EBC30304EB830787F8FC210132D3B2AA
:1025F00087F8FD01994287F8FF01C7F80402C7F880
:102600000802C7F81002EBD804F1140E04F1240AF2
:102610002268A0680A90D4E903379EE840589AE8F7
:102620000007D4E90C50CDE9085002A8CDE90076A6
:1026300080E8005805A880E8000710460A9A03F0D1
:10264000A7F830B1022084F8BD0301200BB0BDE82B
:10265000F08F002084F83800012084F8BD03606A00
:10266000012802D12046FFF76FFB206803F080F8B5
:1026700000200BB0BDE8F08F10B5B6B000210446C5
:10268000CDE93411CDE93211319102A8BC21FDF719
:1026900027FF00212068C4F20801884201D036B02B
:1026A00010BD4FF4802002904FF44010239002A8F8
:1026B00000F0EAF808B1FFF787F900F0D9F844F222
:1026C000D84431A9C5F60204A06840F00100A0601A
:1026D000A06800F00100019001984FF4C0503190C3
:1026E000022032900020CDE933000A2035900020EE
:1026F000C5F60200FFF7A0F92068002140F0006055
:1027000020602068002200F00060019001986520A0
:10271000FFF706FB6520FFF7FFFA36B010BD00009B
:1027200010B50446C06818B1022803D1012104E0A5
:10273000002102E0FFF748F90121D4F8040402F077
:10274000B3FCD4F8040402F05FFC10BD00000000EC
:1027500080B5D0F8040402F08BFC80BD00000000BE
:1027600080B5D0F8040402F08FFC80BD00000000AA
:1027700010B5044690F8BC03012801D1022010BD19
:10278000012084F8BC0384F83810206803F084FB2F
:10279000002084F8BC0310BD80B5D0F8042400F5F7
:1027A0007171104602F08CFC80BD0000000000003A
:1027B00010B5044690F8BC03012801D1022010BDD9
:1027C000A16A206801294FF0010184F8BC1306D1E9
:1027D000A169012903D0816B41F48031816303F049
:1027E0006BFA206802F0B4FF002084F8BC0310BD2F
:1027F00010B50446D0F8040402F09EFC2068D0F81E
:10280000001E41F00101C0F8001E206A002808BF28
:1028100010BD4EF61050CEF20000016841F00601E6
:10282000016010BD00000000B0B544F60C05C5F60F
:10283000020529684907296805D401F00701081A2B
:1028400018BF0120B0BD21F0070108432860FFF741
:10285000DBF9044655F8080C800407D4FFF7D4F9D7
:10286000001BB0F57A7FF5D90120B0BD0020B0BDC6
:1028700044F60C00C5F60200016841F08071016069
:1028800070470000000000002DE9F04381B00446CD
:10289000C07844F22C490007C5F6020901D400268D
:1028A0002DE0606E4FEA305003280DD80026DFE897
:1028B00000F0020E1613D9F80000002640F4003094
:1028C000C9F800004EB912E0012636B90FE0201D0C
:1028D000022101F0F1FB06464EB1B04611E004F1D1
:1028E0002400022101F078FC0646002EF5D1D9F82B
:1028F0002400616E20F440100843C9F824004FF012
:1029000000086078C0072FD0606D042807D8DFE882
:1029100000F00A131B030300F6B1B04624E00126C1
:10292000002EFAD118E0D9F8000040F40030C9F8C0
:102930000000002EF1D10FE0201D002101F0BCFBB2
:102940000646002EE9D107E004F12400002101F041
:1029500043FC0646002EE0D1D9F82400616D20F03A
:1029600007000843C9F824006078800731D5A06DBE
:102970004FEAB010042807D8DFE800F00A131B0361
:102980000300F6B1B04624E00126002EFAD118E08B
:10299000D9F8000040F40030C9F80000002EF1D151
:1029A0000FE0201D002101F087FB0646002EE9D133
:1029B00007E004F12400002101F00EFC0646002E81
:1029C000E0D1D9F82400A16D20F4E0700843C9F8E3
:1029D00024006078400733D5D4F8A4004FEA705043
:1029E000042807D8DFE800F00A131B030300F6B140
:1029F000B04625E00126002EFAD118E0D9F80000F3
:102A000040F40030C9F80000002EF1D10FE0201D85
:102A1000002101F051FB0646002EE9D107E004F148
:102A20002400002101F0D8FB0646002EE0D1D9F8A1
:102A30002C00D4F8A41020F460000843C9F82C003E
:102A40006078000733D5D4F8A8004FEA3060042836
:102A500007D8DFE800F00A131B030300F6B1B04605
:102A600025E00126002EFAD118E0D9F8000040F444
:102A70000030C9F80000002EF1D10FE0201D002128
:102A800001F01AFB0646002EE9D107E004F124000C
:102A9000002101F0A1FB0646002EE0D1D9F82C0060
:102AA000D4F8A81020F0E0600843C9F82C00E078C2
:102AB000800727D5A06C4FEA3010032806D8DFE83E
:102AC00000F002091202AEB1B0461BE00126002E52
:102AD000FAD10FE0D9F8000040F40030C9F8000046
:102AE000002EF1D106E0201D022101F0E5FA064694
:102AF000002EE9D1D9F82000A16C20F03000084365
:102B0000C9F820006078C00631D5E06D4FEA30305A
:102B1000042807D8DFE800F00A131B030300F6B10E
:102B2000B04624E00126002EFAD118E0D9F80000C2
:102B300040F40030C9F80000002EF1D10FE0201D54
:102B4000002101F0B9FA0646002EE9D107E004F1B0
:102B50002400002101F040FB0646002EE0D1D9F808
:102B60002400E16D20F4E0400843C9F824006078B7
:102B7000800625D5206E4FEA3040052807D8DFE8CB
:102B800000F0030A0F03030396B1B04618E00126D4
:102B9000002EFAD10CE0201D012101F08DFA04E095
:102BA00004F12400012101F017FB0646002EECD1B0
:102BB000D9F82400216E20F4E0200843C9F824004D
:102BC0006078400627D5D4F8AC004FEA307005286D
:102BD00007D8DFE800F0030A0F03030396B1B046FD
:102BE00019E00126002EFAD10CE0201D012101F090
:102BF00063FA04E004F12400012101F0EDFA064635
:102C0000002EECD1D9F82C00D4F8AC1020F0E04024
:102C10000843C9F82C00607800061FD5E06ED0B1DB
:102C2000B0F1005F12D0B0F1805F24D1D9F800007C
:102C300040F40030C9F800007EB9D9F82400E16EF4
:102C400020F040500843C9F8240007E0201D01216E
:102C500001F032FA0646002EEFD0B046E078C00709
:102C600029D0606C03280AD8DFE800F0020D1602B4
:102C7000CEB1B0461FE00126002EEED1DDE70126E1
:102C8000002EF6D10FE0D9F8000040F40030C9F86A
:102C90000000002EEDD106E0201D022101F00CFA0B
:102CA0000646002EE5D1D9F82000616C20F0030023
:102CB0000843C9F82000A078400643D5D9F8D403CA
:102CC00040F48070C9F8D403FEF79EFF074600BFAA
:102CD000D9F8D403C00505D4FEF796FFC01B6528BC
:102CE000F6D303266EBBD9F84410D4F8B0004140A7
:102CF00011F4407F11D0D9F84410D9F8442042F49F
:102D00008032C9F84420D9F8442021F4407122F4DB
:102D10008032C9F84420C9F84410B0F5807F0FD143
:102D2000FEF772FF074641F2893500BFD9F844002B
:102D3000800705D4FEF768FFC01BA842F6D3032620
:102D400086B1B0462078C00741D0A06F4FEAF000AE
:102D5000052823D8DFE800F003262B03030376B30E
:102D6000B04634E04FF6CF73D4F8B00059F81C2CBD
:102D7000C0F2FF0300F4407122F47C5203EA101306
:102D8000B1F5407F08BF1A436FF31F3049F81C2C80
:102D9000D9F844100843C9F84400D3E70126002EAF
:102DA000DED10CE0201D012101F086F904E004F1E0
:102DB0002400012101F010FA0646002ED0D1D9F8E6
:102DC0002800A16F20F038000843C9F828002078B7
:102DD000800723D5606F052807D8DFE800F0030AD5
:102DE0000F03030396B1B04618E00126002EFAD176
:102DF0000CE0201D012101F05FF904E004F1240042
:102E0000012101F0E9F90646002EECD1D9F828009D
:102E1000616F20F007000843C9F8280020784007B8
:102E200025D5D4F89000052807D8DFE800F0030A7C
:102E30000F03030396B1B04619E00126002EFAD124
:102E40000CE0201D012101F037F904E004F1240019
:102E5000012101F0C1F90646002EECD1D9F82C0071
:102E6000D4F8901020F007000843C9F82C0020780F
:102E7000800627D5D4F88C004FEA3070052807D893
:102E8000DFE800F0030A0F03030396B1B04619E030
:102E90000126002EFAD10CE0201D002101F00CF9D2
:102EA00004E004F12400022101F096F90646002E08
:102EB000ECD1D9F82800D4F88C1020F0E040084379
:102EC000C9F828002078400627D5D4F898004FEAA2
:102ED000B020052807D8DFE800F0030A0F0303033A
:102EE00096B1B04619E00126002EFAD10CE0201D63
:102EF000002101F0E1F804E004F12400022101F0D6
:102F00006BF90646002EECD1D9F82C00D4F89810B5
:102F100020F4E0500843C9F82C002078000627D59B
:102F2000D4F89C004FEA7030052807D8DFE800F09D
:102F3000030A0F03030396B1B04619E00126002EE1
:102F4000FAD10CE0201D002101F0B6F804E004F1F4
:102F50002400022101F040F90646002EECD1D9F8F8
:102F60002C00D4F89C1020F460400843C9F82C00D1
:102F70002078000716D5D4F88000B0F5805F08D11E
:102F800004F12400022101F027F9002818BF4FF0B6
:102F90000108D9F82800D4F8801020F440500843E4
:102FA000C9F828002078C00616D5D4F89400B0F5EA
:102FB000807F08D104F12400022101F00DF90028DE
:102FC00018BF4FF00108D9F82C00D4F8941020F461
:102FD00040700843C9F82C00A078000721D5D4F828
:102FE000A000B0F5003F19D0B0F5803F10D0C0BBB5
:102FF000201D002101F060F806468EB9D9F82C009A
:10300000D4F8A01020F440300843C9F82C0008E0A0
:1030100004F12400022101F0DFF80646002EEDD075
:10302000B046A078400729D5D4F88400B0F5401FF9
:1030300021D0B0F5001F18D0B0F5801F40F0C1803E
:10304000D9F8000040F40030C9F80000AEB9D9F852
:103050002800D4F8841020F440100843C9F8280050
:103060000CE00126002EDBD1C8E704F12400012189
:1030700001F0B2F80646002EE9D0B046A078C007AD
:103080001FD0E06CB0F5803F10D0B0B9D9F8000087
:1030900040F40030C9F8000096B9D9F82000E16C7E
:1030A00020F480300843C9F820000AE0201D0221E6
:1030B00001F002F806461EB9EFE70126002EECD01B
:1030C000B046E078800608D504F12400022101F022
:1030D00083F8002818BF4FF00108206881031ED430
:1030E000C10234D4C1003CD4810245D441004DD446
:1030F000B0F1FF3F5ADD000208D5D9F82800D4F816
:10310000881020F440000843C9F82800B8F1000FE7
:1031100018BF4FF00108404601B0BDE8F083E16FF1
:103120006FF0010202EB3122022A0AD34FEA312268
:103130003AB1012A4AD1D9F8002042F40032C9F844
:103140000020002E45D04FF00108C102CAD5D9F8A1
:103150002410226F21F000411143C9F82410C1004E
:10316000C2D559F81C1CD4F8B42021F48041114375
:1031700049F81C1C8102B9D5D9F82410A26E21F09F
:1031800080711143C9F824104100B1D559F81C1CB5
:1031900021F4004149F81C1CD4F8B81059F81C2C33
:1031A000114349F81C1CB0F1FF3FA4DCD9F82010F2
:1031B000226D21F040511143C9F820100002A5D51D
:1031C0009BE70126002E7FF458AF40E70126002E32
:1031D000B9D1D9F8282022F440721143C9F8281037
:1031E000C1027FF57FAFB2E72DE9F04381B000283F
:1031F00000F0F48042F200080446C5F20028894637
:10320000D8F8000000F00F0088420ED2D8F8000075
:1032100020F00F0040EA0900C8F80000D8F80000CC
:1032200000F00F00484540F0D980206844F218476C
:103230004107C5F602070AD521693A6802F0700213
:10324000914204D93A6822F07002114339600107B3
:103250000AD561697A6802F07002914204D97A68ED
:1032600022F0700211437960C1060AD5A1697A681B
:1032700002F4E062914204D97A6822F4E0621143D8
:10328000796081060AD5E169BA6802F0700291425C
:1032900004D9BA6822F070021143B96081070AD5D7
:1032A000E1683A6802F00F02914204D93A6822F0CC
:1032B0000F0211433960C0077ED1206881070AD50B
:1032C000E1683A6802F00F02914204D23A6822F0B3
:1032D0000F0211433960D8F8001001F00F01494581
:1032E0000DD9D8F8001021F00F0141EA0901C8F802
:1032F0000010D8F8001001F00F0149456ED14107C8
:103300000AD521693A6802F07002914204D23A6803
:1033100022F070021143396001070AD561697A68A9
:1033200002F07002914204D27A6822F070021143D6
:103330007960C1060AD5A1697A6802F4E062914217
:1033400004D27A6822F4E0621143796080060AD5DB
:10335000E069B96801F07001884204D2B96821F0CF
:1033600070010843B86000F093F8396847F6BC3242
:10337000C0F600023B68C1F3032103F00F03515C68
:10338000D25C01F01F01C84002F01F0140F2200290
:1033900020FA01F1C2F20042116040F21C0140F239
:1033A000E012C2F20041C2F2004208601068FEF76B
:1033B00077FC01B0BDE8F083386820F47061D4E98F
:1033C0000102012841EA020139600BD003282BD009
:1033D00002282ED157F8181C890307D4012001B008
:1033E000BDE8F08357F8181CC905F7D557F8081C35
:1033F00021F00701084347F8080CFEF705FC0646D4
:1034000041F2883557F8080C616800F03800B0EBDD
:10341000C10F3FF452AFFEF7F7FB801BA842F1D972
:10342000032001B0BDE8F08357F8181C8901D5D5F9
:10343000DCE757F8181C4907D0D5D7E70000000093
:1034400080B500F025F844F2184147F6BC33C5F6C4
:103450000201C0F600030A68096801F00F01C2F317
:103460000322595C9A5C02F01F0220FA02F201F07A
:103470001F0040F2200122FA00F0C2F20041086071
:1034800040F21C01C2F200410A6080BD0000000051
:1034900044F20041C5F602010869C0F3C2000328E6
:1034A0000FD002282AD070BB0868800649F20000BD
:1034B000C0F2D03058BF70470968C1F3C101C8409D
:1034C00070478A6A886AC0F3051CC86ABCF1000F9D
:1034D0004B6B1DD0C3F3CC0300F00100584302F046
:1034E0000302022A00EE100AB8EE400A12D0A2B976
:1034F0000868800614D49FED261A1EE047F64000A7
:10350000C0F27D10704740F60010C0F23D007047D9
:10351000002070479FED1D1A0FE09FED1B1A0CE075
:10352000086849F20002C0F2D032C0F3C10022FAAA
:1035300000F001EE100AB8EE411A086B9FED153A43
:103540006FF35F2002EE100A086BC0F34620B8EE5E
:10355000422A013000EE032A00EE10CAB7EE003A0C
:10356000B8EE400A81EE000A32EE031A20EE010A9C
:1035700001EE100AB8EE411A80EE010ABCEEC00A54
:1035800010EE100A704700BF0024744A20BCBE4BE6
:103590000024744C000000392DE9F04381B0F8B1EB
:1035A0008046007844F20049C007C5F602095AD0A7
:1035B000D9F8100000F03801D9F82800102905D0FA
:1035C00018290FD100F0030002280BD1D9F8000010
:1035D000800344D5D8F80400002840D101272FE00B
:1035E000012735E2D8F804402CB1B4F5A02F0DD056
:1035F000B4F5803F10D0D9F8000020F48030C9F82D
:103600000000D9F8000020F4802009E0D9F800007B
:1036100040F48020C9F80000D9F8000040F4803060
:10362000C9F80000FEF7F0FA0546A4B1D9F8000089
:10363000800314D4FEF7E8FA401B6428F6D9032768
:103640000020002800F004820DE000BFFEF7DCFA45
:10365000401B6428F3D8D9F800008003F6D4012079
:10366000002800F0F58198F80000800740F1848080
:10367000D9F8100010F03801D9F828001CD018290A
:1036800008BF5FEA807017D0D8F80C00D9F8001096
:10369000002847D021F019010843C9F80000FEF7BF
:1036A000B3FA0546D9F8000040072AD4FEF7ACFA71
:1036B000401B0228F6D91EE0D9F80000400704D5C7
:1036C000D8F80C00002800F09181D9F80000D8F853
:1036D0000C1020F019000843C9F80000FEF794FA16
:1036E000054600BFD9F8000040070AD4FEF78CFA5F
:1036F000401B0228F6D903270024002C00F0A881E3
:103700003AE0FEF779FA41F20301884223D8D8F86B
:103710001000D9F80410402821F47C3124D141F460
:10372000003023E021F00100C9F80000FEF76CFA38
:1037300005460126D9F8000010F0040086EA90043E
:1037400017D0FEF761FA401B0328F3D30327002CA0
:1037500000F07E8110E0D9F80400D8F8101020F0B5
:10376000FE4040EA016001E041EA0030C9F804008F
:103770000124002C00F06C8198F80000C00674D57C
:10378000D9F8100000F03801D9F82800082905D030
:1037900018291CD100F00300012818D1D9F8000025
:1037A000C00503D5D8F81C00802859D1FEF724FAAB
:1037B00041F20301884222D8D8F82000D9F8041039
:1037C000202821F0F84142D141F0804041E0D8F872
:1037D0001C000028D9F8000020D040F08000C9F873
:1037E0000000FEF711FA0546D9F80000C005DDD447
:1037F000FEF70AFA401B0228F6D9032731E0D9F870
:103800000C00D8F8201020F07C50012440EA016020
:10381000C9F80C00002C00F01B8126E020F080008D
:10382000C9F80000FEF7F0F905460126D9F80000B6
:1038300010F4807086EA10240ED0FEF7E5F9401BE4
:103840000328F3D30327002C00F002810DE041EAA6
:103850008060C9F804000124002C00F0F98004E025
:1038600001270024002C00F0F38098F800000007E6
:103870001CD498F80000800631D498F80000400766
:1038800045D4D8F82440002C00F0E180D9F810008D
:1038900000F03800182840F08880012CD9F8281052
:1038A000D9F8300040F0A4800127D1E0D8F8140006
:1038B0000028D9F874003ED040F00100C9F8740027
:1038C000FEF7A2F9054600BFD9F874008007D0D4EE
:1038D000FEF79AF9401B0228F6D90327B8E0D8F87A
:1038E00018000028D9F800004BD040F48050C9F8E7
:1038F0000000FEF789F90546D9F800008004BCD421
:10390000FEF782F9401B0228F6D90327A0E0D9F878
:10391000000440F48070C9F80004FEF775F905460C
:10392000D9F80004C0051AD4FEF76EF9401B6428CC
:10393000F6D903278CE020F00100C9F87400FEF7E7
:1039400063F90546032700BFD9F8740080077FF5A7
:1039500090AFFEF759F9401B0228F5D978E0D8F866
:1039600008401CB1052C77D0012C7BD0D9F8700011
:1039700020F00100C9F87000D9F8700020F00400B0
:1039800074E020F48050C9F80000FEF73DF90546C8
:10399000032700BFD9F8000080047FF56EAFFEF763
:1039A00033F9401B0228F5D952E0D9F8000020F085
:1039B0008070C9F80000FEF727F9022C05464FF089
:1039C000030709D1D9F80000800171D5FEF71CF971
:1039D000401B0228F6D93BE0D9F80000800136D51B
:1039E000FEF712F9401B0228F6D931E0012783E6E1
:1039F00001F00302D8F828309A4240F0D380C1F396
:103A00000511D8F82C20914240F0CE800146D8F81C
:103A100030206FF35F21013A914240F0C780C0F33C
:103A20004622D8F8341001398A4240F0C180C0F3F0
:103A30000642D8F8381001398A4240F0BB80C0F302
:103A40000660D8F83C100139884240F0B580002764
:103A5000F8B201B0BDE8F083D9F8700040F004007E
:103A6000C9F87000D9F8700040F00100C9F8700082
:103A7000FEF7CAF8002C054641F288344FF00307E0
:103A800011D000BFD9F8700080073FF5FAAEFEF7FD
:103A9000BBF8401BA042F5D9DAE700BFFEF7B4F847
:103AA000401BA042D4D8D9F870008007F6D4E8E6CD
:103AB00008F12807D9F8280040F2F33188438ECF67
:103AC0000843591E40EA02104FF47E426FF35F2113
:103AD000C9F8280002EB47204FF4FE0280B2D8F864
:103AE0003C300844D8F8381002EB01414FF0FE4258
:103AF00001F4FE0102EB0362084402F0FE410844B7
:103B0000C9F83000D9F82C004FF6F87120F0010008
:103B1000C9F82C00D9F83400D8F84820884340EA86
:103B2000C200C9F83400D9F82C00D8F8401020F0B1
:103B30000C000843C9F82C00D9F82C00D8F8441020
:103B400020F002000843C9F82C00D9F82C0040F4FA
:103B50008030C9F82C00D9F82C0040F40030C9F8A6
:103B60002C00D9F82C0040F48020C9F82C00D9F89A
:103B70002C0040F00100C9F82C00D9F8000040F0FA
:103B80008070C9F80000FEF73FF804460327D9F813
:103B9000000080013FF55BAFFEF736F8001B0228FE
:103BA000F5D955E7012753E7012751E701274FE7EB
:103BB00001274DE701274BE7012749E700000000F7
:103BC00080B500F0A1FB80BDB0B590F83C20012A83
:103BD0004FF002025CD0012380F83C3080F83D2099
:103BE00040F2004C0268C4F2010C42F48063634569
:103BF0005368D2F808E002BF23F470034C682343F3
:103C000041F2FF740D68C4F2000423F07003A24275
:103C100043EA050353600BDC40F2FF73C4F2000378
:103C20009A4215DCB2F1804F27D040F2004317E0F2
:103C300040F2FF33C4F201039A4216DC41F600035E
:103C4000C4F200039A4218D00023C4F2010309E031
:103C500040F60003C4F200039A420ED040F600433F
:103C6000C4F200039A4208D00CE044F20003C4F20C
:103C700001039A4201D0624504D12EF08003896885
:103C8000194391600022012180F83D1080F83C200A
:103C90001046B0BD0000000060B310B5044690F8B7
:103CA0003D0028B9002084F83C00204600F024F8AC
:103CB000022084F83D002068211D00F009FC01204D
:103CC00084F8480084F83E0084F83F0084F84000FF
:103CD00084F8410084F8420084F8430084F84400EA
:103CE00084F8450084F8460084F8470084F83D00D5
:103CF000002010BD0120704781B041F200410068F2
:103D0000C4F20001884201D001B0704744F2E8409B
:103D1000C5F60200016841F020010160006800F072
:103D200020000090009801B07047000000000000E3
:103D3000FEE700000000000010B5002A08BF10BD1B
:103D400002394FF0370C4FF0000E00BF030FB0F1F7
:103D5000204F0CEB107438BF03F13004013A4FEAE6
:103D6000001001F8024F81F801E0EFD110BD000012
:103D700082B044F2E040C5F60200016841F08001E3
:103D80000160016801F0800101910199016841F031
:103D900001010160006800F001000090009802B08D
:103DA000704700000000000010B584B041F60C60C0
:103DB00041F20041C2F2004000240394C4F2000129
:103DC000CDE901440160EF21C0E901144FF6FF7114
:103DD000C1608461FFF760FF08B1FDF7F5FD41F6B2
:103DE0000C6001A9C2F2004001940394FFF7ECFEBD
:103DF00008B1FDF7E9FD04B010BD000000000000AF
:103E000080B541F2347040F20001C2F20040C2F2CB
:103E10000041002200F0ACFF08B1FDF7D5FD41F2F2
:103E2000347040F22401C2F20040C2F2004101F0BD
:103E3000ABF908B1FDF7C8FD41F2347040F248110A
:103E4000C2F20040C2F2004100F0EEFC08B1FDF702
:103E5000BBFD41F23470C2F2004001F049FA08B1F2
:103E6000FDF7B2FDFEF704FD80BD0000000000007C
:103E7000FEE7000000000000FEE700000000000078
:103E800000F007004FF0FF3C80F00703042B28BF31
:103E90000423033838BF00200CFA03F399430CFACB
:103EA00000F301FA00F022EA030108437047000022
:103EB00080B541F60420C2F20040FEF7CDF880BD87
:103EC00070B50446006843F20B06056C00EB411028
:103ED000C4F65476B542D0F8081B07D311F400415C
:103EE0001EBF00F530604FF4004181602046FEF7B0
:103EF00053FCB54209D32069012818BF70BD206862
:103F000004F57172012101F07BFD70BD000000001D
:103F100070B5044600680E4600EB4111036CD1F801
:103F2000082B2569012D01F530612BD115073BD4F4
:103F3000950654D412F0280F18BF70BD43F20B053C
:103F4000C4F65475AB4202D312F4004235D1C6EB2D
:103F5000C60209696FF3DF4104EB8202D2E98135C1
:103F6000A3EB0101C2F8141205EB0301C2F8081219
:103F7000AEB9D2F8101291B904F57172012101F0B5
:103F80003FFD0CE043F20B05C4F65475FF35AB4220
:103F900017D1100411D4900601D520208860F1B209
:103FA0002046FDF729FF70BD43F20B00C4F65470A4
:103FB000834213D312F4004010D04FF400408860C5
:103FC00070BD3EB9D4F8101221B904F57172002108
:103FD00001F016FDF1B22046FDF70EFF70BD202066
:103FE000886070BD000000002DE9F04F83B0C1EB88
:103FF000C102064600EB8200054655F8503F2C46AC
:1040000054F8042F934250D30746D6F800C09A1AAA
:1040100057F8443F9A4288BF1A46CDE9011C0CEB81
:1040200041110332D1F818399BB2B3EB920F2BD365
:1040300000F1480801985FFA80FA01F5106B00BFA3
:104040002068296881421FD9A1EB000938688145A1
:10405000327C88BF8146D8F8001000921FFA89F39D
:104060000298524601F0C0FFD8F800004844C8F852
:10407000000020684844206009F10300DBF81810B4
:1040800089B2B1EB900FDBD2286821688842019891
:104090000BD8029A00F00F00012101FA00F0D2F8CB
:1040A000341821EA0000C2F8340803B0BDE8F08FEC
:1040B0007047000000000000F0B581B044F22C47CA
:1040C000C5F6020757F8042C02F00302032A02D1B6
:1040D000012001B0F0BD054657F82C0C0C4620F02D
:1040E000806047F82C0CFDF78FFD064657F82C0C26
:1040F000000105D5FDF788FD801B0228F6D964E094
:1041000057F8040CEE6895E80E0020F47C30012C82
:1041100040EA0130A2F101016FF35F214FF47E42CA
:1041200002EB432247F8040C92B24FF0FE4302EB3D
:1041300001004FF4FE012A6901EB064101F4FE0182
:1041400003EB0262084402F0FE410844F86038685C
:10415000696920F0C00040EA010038603868A96948
:1041600020F0200040EA0100386038684FF6F8710E
:1041700020F0100038603869EA6920EA01004FF445
:10418000001140EAC2003861386808BF4FF480115E
:1041900040F01000002C386008BF4FF40021386850
:1041A0000843386057F82C0C40F0806047F82C0C1E
:1041B000FDF72AFD044600BF57F82C0C000107D478
:1041C000FDF722FD001B0328F6D3032001B0F0BD4C
:1041D000002001B0F0BD0000F0B581B044F22C47E2
:1041E000C5F6020757F8042C02F00302032A02D195
:1041F000012001B0F0BD054657F82C0C0C4620F00C
:10420000805047F82C0CFDF7FFFC064657F82C0CA5
:10421000800005D5FDF7F8FC801B0228F6D964E084
:1042200057F8040CEE6895E80E0020F07C70012C25
:1042300040EA0150A2F101016FF35F214FF47E4289
:1042400002EB432247F8040C92B24FF0FE4302EB1C
:1042500001004FF4FE012A6901EB064101F4FE0161
:1042600003EB0262084402F0FE41084478613868BA
:10427000696920F4406040EA010038603868A96943
:1042800020F4007040EA0100386038684FF6F87199
:1042900020F480703860B869EA6920EA01004FF0C4
:1042A000807140EAC200B861386808BF4FF400016D
:1042B00040F48070002C386008BF4FF480013868EB
:1042C0000843386057F82C0C40F0805047F82C0C0D
:1042D000FDF79AFC044600BF57F82C0C800007D469
:1042E000FDF792FC001B0328F6D3032001B0F0BDBC
:1042F000002001B0F0BD0000704700000000000089
:104300000088704700000000B0B501380024B4EB0D
:10431000106F01D00120B0BD4EF210050F21CEF27A
:10432000000568604FF0FF3002F022FCAC6007200F
:1043300028602046B0BD000080B5FDF76DFC80BD53
:10434000B0B59CB044F6180409A84C21C5F6020487
:10435000FCF7C6F802200025CDE90755CDE9055543
:10436000CDE90355CDE90155FEF75EFA00952068C9
:1043700040F440402060206800F44040009040F24B
:104380002C40C5F60000016841F0010101600068A1
:1043900000F001000090009820688004FCD52120E6
:1043A00009904FF480300A9001200F9002200521DF
:1043B000CDE912001491C021CDE91510CDE9170007
:1043C00009A8082419940025CDE91A55FFF7E4F847
:1043D000A0B93F20019003204FF48061CDE9020590
:1043E00040200494CDE90500CDE9071001A804217F
:1043F000FEF7FAFE002804BF1CB0B0BDFDF7E4FADA
:104400004EF6885042F2000CCEF20000C5F2002CAD
:10441000016841F470010160DCF8000000F00F0059
:10442000062806D8DCF80000072161F30300CCF869
:10443000000044F200404EF67F52C5F60200CEF670
:10444000F622016841F00101016000210161036869
:104450001A400260DCF80020120706D5DCF80020C4
:10446000072363F30302CCF8002040F200228161AD
:10447000C161C0F20222016282620022C0F2FF1218
:10448000C26240F28022C0F2011202634163826381
:10449000C16302644164026822F480220260016602
:1044A00041F20000C5F600400068B1EB507F05D135
:1044B00048F208100121C5F20010016044F200002A
:1044C00043F2D201C5F200200160704700000000F5
:1044D00010B540F6FF32C4F20002904202680FDCD1
:1044E000B0F1804F1DD040F20043C4F20003984267
:1044F00017D040F60003C4F20003984211D014E034
:1045000040F60043C4F2000398420AD040F2004350
:10451000C4F20103984204D00023C4F2010398427C
:1045200003D122F070024B681A434FF6FF7343F633
:10453000FF7CC4F20003C4F2010C984210DD604518
:104540001ADD44F20003C4F2010398422CD044F671
:104550000003C4F20103984226D044F2004312E063
:1045600040F2FF73C4F20003984211DCB0F1804FB7
:104570001AD040F2004313E00023C4F20103984232
:1045800012D040F20043C4F2010398420CD00FE075
:1045900040F60003C4F20003984205D040F6004301
:1045A000C4F20003984203D122F44072CB681A434C
:1045B00022F080024C696045D1F800E08B6842EA45
:1045C00004020260C362C0F828E00EDD44F200027B
:1045D000C4F20102904213D044F60002C4F2010278
:1045E00090420DD044F2004206E00022C4F20102E3
:1045F000904205D040F20042C4F20102904201D143
:10460000096901630121416110BD00000000000043
:1046100010B5D0F8BC2222B38C4601EB810100EB2F
:10462000810151F8183F63B1D0F8C4E2CCEBCC045F
:104630000EEB8404D4F844E0B3FBFEF404FB1E3319
:104640008BB10024C2F81442D0F8C002036933B120
:10465000D2F8080202F50471624698470024204609
:1046600010BD032010BD00240C6000220023614611
:1046700000F06EFD204610BDB0B5D0F8BC5275B14B
:10468000044600F039FCD4F8C02205F50371C5F8E2
:104690000C02D5F80402D26890470020B0BD032078
:1046A000B0BD000000000000B0B58121044600F05C
:1046B0007FFB012120460025258700F079FB822120
:1046C0002046A4F8785100F073FBD4F8BC02E564EE
:1046D00048B1D4F8C00240688047D4F8BC0200F06A
:1046E00017FFC4F8BC520020B0BD0000000000005D
:1046F00010B5D0F8BC4284B1D0F8C01279B194F8AA
:104700000002FF280BD094F801228B6821469847BD
:10471000FF2084F80002002010BD032010BD0020FF
:1047200010BD00000000000040F2E4010A22C2F2C5
:10473000004102800846704740F25C014322C2F209
:10474000004102800846704740F2A0014322C2F2B5
:10475000004102800846704740F2F0014322C2F255
:104760000041028008467047F0B581B004464FF41E
:10477000077000F0D1FEE0B30546207C4026C4F867
:10478000BC5200284FF0810108BF4FF4007602228E
:104790002046334600F024FC012102222046334605
:1047A0000127278700F01CFC1020A4F84E0082216E
:1047B000032208232046A4F8787100F011FCD4F8F5
:1047C000C002A4F84C70006880470020C5F81402AD
:1047D000C5F818020121207CD5F8042200282046C3
:1047E0000CBF4FF40073402300F006FC002001B022
:1047F000F0BD0020C4F8BC02022001B0F0BD0000F2
:1048000080B5D0F8BC1269B1027C4023002AD1F8EF
:1048100004224FF0010108BF4FF4007300F0ECFBDD
:10482000002080BD032080BD19B1C0F8C012002057
:104830007047032070470000D0F8BC0218B1C0F8E0
:1048400004120020704703207047000000000000A1
:10485000D0F8BC0228B1C0F80812C0F8102200201D
:10486000704703207047000070B582B0D0F8BC627A
:1048700004464FF000008DF80700ADF80400B6B113
:1048800008780D4610F0600113D0202928D1EA885D
:10489000002A2BD0000632D46878314686F8000210
:1048A000204686F8012200F0BBF8002660E00326CF
:1048B0005EE068780B2844D80026DFE800F006594F
:1048C0004242424242424242303C94F89C02032817
:1048D0003DD101A90222204600F0BEF8002647E0A3
:1048E0002046294600F090F8032641E0D4F8C01293
:1048F0006878002200268B682946984738E0D4F86B
:10490000C01268788B6831469847EA88204631465D
:10491000072A28BF072200F09FF8002628E094F815
:104920009C02032819D10DF107010122204600F055
:1049300093F800261CE094F89C02032813D100266B
:1049400016E02046294600F05FF8032610E02046D6
:10495000294600F059F803260AE02046294600F0CF
:1049600053F8032604E02046294600F04DF80326BC
:10497000304602B070BD000080B5D0F8BC323BB10B
:10498000D3F8141200294FF0010103D0084680BD6E
:10499000032080BDC3F814128121D3F80822D3F874
:1049A0001032C36200F0D4FB0021084680BD000035
:1049B00080B5D0F8B8220AB152689047002080BD77
:1049C00080B590F89C22013A022A09D84988012929
:1049D00018BF80BD0021C0F8A41200F04DF880BDC2
:1049E00000F012F880BD000080B513460A46002191
:1049F00000F002FB002080BD80B513460A4600216E
:104A000000F0A6FB002080BD10B58021044600F018
:104A100083FB0021204600F07FFB10BD000000005A
:104A200080B50323C0F894321346C0F858210A46D3
:104A30000021C0F85C3100F0DFFA002080BD0000EA
:104A400080B50521C0F8941200210022002300F057
:104A5000D3FA002080BD000080B50223C0F8943254
:104A6000134682610A460021C36100F071FB0020F9
:104A700080BD00000000000080B50421C0F8941241
:104A800000210022002300F063FB002080BD000015
:104A900010B540F24C240A46C2F2004402A021465E
:104AA00000F032F9204610BD43444320436F6E6648
:104AB000696700000000000040F234101222C2F2C8
:104AC00000400A807047000010B540F24C240A46AE
:104AD000C2F2004402A0214600F016F9204610BDA3
:104AE00043444320496E746572666163650000004B
:104AF00040F25C100422C2F200400A8070470000BD
:104B000010B540F24C240A46C2F2004402A02146ED
:104B100000F0FAF8204610BD53544D6963726F657A
:104B20006C656374726F6E6963730000000000004F
:104B300010B540F24C240A46C2F2004402A02146BD
:104B400000F0E2F8204610BD53544D333220566930
:104B5000727475616C20436F6D506F727400000049
:104B600080B51A200880FCF737FF40F26010C2F2CF
:104B7000004080BD0000000080B5C988012910D127
:104B800090F89C124A1E022A04D20146002241F8E3
:104B9000082F02E0032904D1011D0122FFF75CFF69
:104BA00080BDFFF731FF80BDB0B582B00D464988AA
:104BB0004FF0FF3204460020ADF8060002EB112250
:104BC000062A62D8DFE802F00415096161222B0091
:104BD000D4F8B412207C0A6842E0C8B2052854D840
:104BE000DFE800F003292D313539D4F8B4024268EA
:104BF00034E0207C0028D4F8B8020CBF816AC16A76
:104C00000DF1060088470146022012E0207CE0BB3F
:104C1000D4F8B802416B0DF10600884723E0207CF0
:104C200098BBD4F8B802016B0DF106008847014625
:104C30000720487018E0D4F8B40282680EE0D4F877
:104C4000B402C2680AE0D4F8B402026906E0D4F8FB
:104C5000B402426902E0D4F8B4028269AAB1207CAD
:104C60000DF10601904701460120A8B1EA88AAB1DA
:104C7000BDF80600B8B1904238BF02462046ADF8F4
:104C80000620FFF7E9FE02B0B0BD2046FFF7BCFEEC
:104C9000002100200028E9D102B0B0BD2046FFF776
:104CA000EBFE02B0B0BD2046FFF7AEFE02B0B0BDD5
:104CB000017841B1411E00208A7801300131002A7B
:104CC000FAD1C0B270470020C0B2704700000000A7
:104CD00080B590F89C22013A022A0FD8C98802298F
:104CE0000CD1D0F8A41203220029014608BF0122EA
:104CF00041F80C2F0222FFF7AFFE80BDFFF784FEC4
:104D000080BD00000000000070B5E8B10546164601
:104D10000C46FFF7CDFF022101EB400030802070F0
:104D2000032060702878002808BF70BD691E022229
:104D3000002300BFD6B2023246F00105A0556355EC
:104D4000887801310028F5D170BD00000000000016
:104D5000032808D840F20031C000C0F2013121FA26
:104D600000F0C0B270470320704700000000000050
:104D700090B180B50023C0F8B832C0F8C032002925
:104D8000C0F8CC3218BFC0F8B412012180F89C12D0
:104D9000027000F0B9F880BD0320704700000000E9
:104DA00080B5D0F8C402FDF763F8FFF7D1FF80BDEE
:104DB00080B5D0F8C402FDF733F8FFF7C9FF80BD16
:104DC000B0B5044671B194F89C02032849D1D4F8D7
:104DD000B8024269002A44D020469047002808BF04
:104DE0000020B0BDD4F89402022833D1D4E90710D2
:104DF00081420DD90B1A204611461A46E361FFF78E
:104E0000FBFD002100220023204600F0F5F821E000
:104E10000FD1A16981420CD3D4F89802814208D203
:104E20000021002220460025FFF7E6FDC4F8985235
:104E3000E7E794F89C02032805D1D4F8B802C168CA
:104E400009B1204688478021204600F065F92046B8
:104E5000FFF7F6FD94F8A002012802D1002084F8A3
:104E6000A0020020B0BD000010B5044669B194F85E
:104E70009C0203281CD1D4F8B8028269C2B1204632
:104E80009047002808BF002010BDD4F894020328E2
:104E90000ED1D4E9570398420CD9C01AC4F85C016A
:104EA0009842114638BF034620461A46FFF79CFD3C
:104EB000002010BD94F89C02032805D1D4F8B80254
:104EC000016909B1204688472046FFF7D5FD00203B
:104ED00010BD00000000000000207047000000002E
:104EE00080B5012180F89C12D0F8B82212B1017966
:104EF00052689047002080BD80B5D0F8C402FCF70E
:104F0000EBFF80BD0000000010B5017809B1002062
:104F100010BD41F604210022C2F20041C0F8C412C3
:104F2000C1F804040020C4F20800086009204860A9
:104F30000220C860C1E9060208460A61C1E90822E8
:104F4000C1E90A220A63FDF7F3FA08B1FCF73CFD58
:104F500041F604244FF40071C2F200442046FCF7ED
:104F60000BFF002180222046FCF70AFF01214FF4AD
:104F7000BA722046FCF704FF002010BD00000000BC
:104F800001F07F02D0F8C4020906C2EBC20200EBB6
:104F9000820000F13E0258BF00F5FF7210787047A2
:104FA00080B5D0F8B82242B190F89C32032B02D1E0
:104FB000126A02B19047002080BD032080BD00002E
:104FC00080B5D0F8B82242B190F89C32032B02D1C0
:104FD000526A02B19047002080BD032080BD0000CE
:104FE00080B59446D0F8C4021A466346FCF780FFA9
:104FF000FFF7AEFE80BD000080B5D0F8C402FCF71C
:10500000A7FFFFF7A5FE80BDF0B581B004460120E3
:10501000002184F89C02C4F89412D4F8B8026160AC
:10502000C4F8A412E8B1D4F8BC1221B1426812B19C
:1050300000212046904700210022402320460025E1
:105040004026FFF7CDFF8021002240232046012784
:10505000A4F86471C4F86061FFF7C2FFA7842662F8
:1050600000E00325284601B0F0BD0000000000006C
:1050700090F89C12042903D190F89D1280F89C129C
:10508000002070470000000080B5D0F8B81241B190
:1050900090F89C22032A02D1C96901B188470020F7
:1050A00080BD032080BD00000246002011747047BF
:1050B00080B5D0F8C402FDF75BFBFFF749FE80BD69
:1050C000B0B500F2AA250446284600F049F80120B0
:1050D000C4F8940294F8AA02B4F8B02200F01F01B8
:1050E000C4F89822022907D001290AD071B92046B4
:1050F000294600F001F9B0BD2046294600F034F9F8
:10510000B0BD2046294600F0CFF9B0BD00F08001C7
:10511000204600F001F8B0BD80B5D0F8C402FCF71D
:105120003BFFFFF715FE80BD80B5D0F8C402FDF748
:105130003FFBFFF70DFE80BD014690F89C02042264
:1051400081F89D02002081F89C2270470000000039
:1051500080B5D0F8C402FCF757FFFFF7F9FD80BD1A
:10516000B0B50C4609780546017060786870A01CDF
:10517000FFF7C6F86880201DFFF7C2F8A880A01DC1
:10518000FFF7BEF8E880B0BD10B582B004464FF01E
:105190000000ADF8060059B1CA6AC4F8B81222B1CD
:1051A0000DF106009047C4F8CC02002002B010BDFB
:1051B000032002B010BD0000B0B58A88044642B991
:1051C000C88830B948887F2803D894F89C120329EE
:1051D00003D12046FFF718FCB0BD00F07F05204644
:1051E000294684F89E52FFF763FF2046FFF744FCF0
:1051F000002D14BF0220012084F89C02B0BD0000E5
:1052000080B5D0F8B82212B11268904780BD032053
:1052100080BD000000000000B0B5498840F248257C
:10522000C2F20045044611F0FE0F297004D020465A
:10523000FFF7EAFB0320B0BDC9B294F89C02032833
:105240000DD0022823D191B320466160FFF7D8FF2B
:10525000054688B32046FFF7D7FB2846B0BDF9B115
:105260006068884223D0C1B22046FFF7A1FB2978AD
:1052700020466160FFF7C4FF054628B32046FFF7CC
:10528000C3FB21792046FFF793FB022018E020465C
:10529000FFF7BAFB29782046FFF78AFB0320B0BD51
:1052A000022084F89C0220466160FFF781FB2046C3
:1052B000FFF7E2FB0020B0BD2046FFF7DDFB032037
:1052C00084F89C022846B0BD2046FFF7D5FB28464F
:1052D000B0BD00000000000080B54988012918BF5A
:1052E00080BD0121C0F8A412FFF7C6FB80BD0000FD
:1052F00080B5FFF719FF80BD80B50A7812F0600213
:1053000008D0402A18BF202A12D1D0F8B8229268BB
:10531000904780BD4A78092A0AD8DFE802F0050DD7
:10532000091109152009191DFFF7D2FC002080BDC5
:10533000FFF76AFB002080BDFFF742FB002080BD25
:10534000FFF7CAFF002080BDFFF736FF002080BDB9
:10535000FFF712FC002080BDFFF75EFF80BDFFF766
:1053600023FC002080BD0000B0B50D46097804463E
:1053700011F060010AD0402918BF20297ED1D4F84D
:10538000B8022946826820469047B0BD68782979DE
:10539000B0B1012835D0032870D194F89C020328BD
:1053A00033D1688840B941F08000802804D0E88873
:1053B00010B92046FFF7B0FE2046FFF75DFB60E026
:1053C00094F89C0203282ED0022857D141F0800087
:1053D000802853D101F07F0009064FF002024FF000
:1053E000000500EB800004EB800000F1140358BFBF
:1053F00000F5AA73204619461D60FFF72DFB2846CD
:10540000B0BD94F89C02032819D0022836D141F08F
:105410008000802832D02046FFF77EFE8021204683
:10542000FFF77AFE2DE001F00F0211F0800002EB91
:10543000820204EB82020DD1B2F864210BE068888D
:10544000F8B9480602D02046FFF7AAFC2046FFF72D
:1054500013FB94E7928C8AB101F07F02002841F09F
:10546000800002EB820204EB820202F1140508BF05
:1054700002F5AA75802807D100200BE02046FFF72F
:10548000C3FA00252846B0BD2046FFF779FD002865
:10549000F2D001202860022220462946FFF7DCFADC
:1054A000EFE700000000000070B50D4609780446E3
:1054B00011F0600118BF40290ED194F89C02013808
:1054C000022803D8A88810F0FE0F0DD02046FFF761
:1054D0009BFA0026304670BD2029EED02046FFF70B
:1054E00093FA0026304670BDD4F8B8022946826887
:1054F0002046904706460028F4D1E8880028F1D1DC
:105500002046FFF7B9FA304670BD000000000000E9
:10551000704700000000000040F24C40C2F2004022
:10552000704700000000000010B54B7891F800E0D3
:10553000012B0EF00F0321D10122D0F81C489A4014
:1055400000F5106C4FEA4E132243C0F81C285CF89B
:105550000300000430D488686FF3DF20C97853F863
:105560000C2040EA8E50104340EA814040F08050C9
:1055700040F4004043F80C00002010BD4FF480328E
:10558000D0F81C4802FA03FC00F530634FEA4E12D3
:1055900044EA0C04C0F81C48985800040CD48868ED
:1055A0006FF3DF20C978D458204340EA814040F0AF
:1055B000805040F40040D050002010BD000000009A
:1055C0000146D0F8000940F2FF729043C1F800098B
:1055D000D1F80428002042F48072C1F804287047F2
:1055E00070B5069904460129049D19D1A16B4FF6A7
:1055F000BF7221F48031A163E168CFF6BD720D98CE
:105600001140E1600128E16821F44010E06003D11D
:10561000E06840F48010E060204600F029F80FE0D8
:10562000E0680A9E40F04000E060204600F020F86C
:10563000A16B16B121F4803101E041F48031A16306
:10564000012D18BF70BDE16D89B2E165E16D41F0DA
:10565000007141F0F771E165A16841F00601A160B8
:10566000A16841F02001A16070BD000000000000B1
:1056700081B040F640510022C0F20301009200BF09
:10568000009A013200928A4215D80269B2F1FF3FB6
:10569000F6DC00220092026942F00102026100BFC2
:1056A000009A013200928A4205D80269D207F7D1E6
:1056B000002001B07047032001B0704700000000D7
:1056C0000A7847F6000C4B78CEF6334C012B00EBF2
:1056D000421108D1D1F80039B3F1FF3F01F5106351
:1056E0000DDD01211FE0D1F8003B0CF1707CB3F11E
:1056F000FF3F01F530630CDD4FF4803113E0196892
:1057000041F000611960196841F080411960012180
:1057100009E0196841F000611960196841F08041A1
:1057200019604FF4803102F00F029140D0F83C280C
:105730008A43C0F83C28D0F81C2822EA0101C0F8AE
:105740001C181968002001EA0C011960704700005C
:105750000146D0F8000E20F00300C1F8000E002032
:10576000D1F8042822F00202C1F804287047000092
:105770000146D0F8000E20F00300C1F8000E002012
:10578000D1F8042842F00202C1F804287047000052
:105790002DE9F04F81B00D460446DDF844A00C9889
:1057A000DDF828904121002244F8212001315029C0
:1057B000FAD1BAF1000F04D004F138014FF400120D
:1057C0000FE0D4F80418802241F00201C4F8041854
:1057D000A16B21F40011A163216841F04001216017
:1057E00021460F684FF000083A430A60C4F8008E63
:1057F000002BD4F8001818BF01230128C4F80018A2
:1058000018BF03232046194600F05AFB10212046FA
:1058100000F07EFA8346204600F056FAC4F810885D
:10582000C4F81488C4F81C8885B304F510614FF6D9
:105830007F3200234FF09046002B08BF4FF00066E8
:105840000F68013306EAE7770F60C1F810809D42C8
:105850008A6001F12001EDD104F530614FF0000CB8
:105860004FF67F33002600BF4FF09047002E08BF51
:105870004FF000670A68013607EAE2720A60C1F871
:1058800010C0B5428B6001F12001EDD1D4F81018A1
:10589000B9F1000F21F48071C4F81018C4F8188011
:1058A0006FF08041616103D1A16941F01001A161F4
:1058B00043F600020D9BA169C8F23C0241EA0201D5
:1058C000A1611BB1A16941F00801A161BAF1010F09
:1058D00005D1A16941F0804141F00401A16150EA84
:1058E0000B0018BF012001B0BDE8F08F00000000E0
:1058F00001468268002022F001028A6070470000A1
:10590000F0B54B7891F800C0012B23D100EB4C1E71
:1059100000254E694FF6FF74CFF6F875CEF20704F6
:10592000002E0EF51063DEF810793FD03D401D616A
:105930001D6925401D618D6804F10054AE4288BF89
:105940004D611D6945F400251D614D692C401D699F
:105950002C4333E000EB4C13D3F8100B6FF3120021
:10596000C3F8100BD3F8100B6FF3DC40C3F8100B27
:10597000486903F5306300284FF6FF701CBF8F683D
:105980004F611F69CEF2070047F400271F618F683F
:1059900000F1005038401F69012A40EA07001861F1
:1059A00013D1C868002818BF58610EE03C401C6144
:1059B0001C6944F400241C611C692C40012A1C61F0
:1059C0000AD1086908B1CEF814094FF004411868EB
:1059D000084318600020F0BDDEF8002942F00442C0
:1059E000CEF8002949690029F4D00CF00F010122FA
:1059F00002FA01F100F63403E9E7000000000000BC
:105A000043F20B03D0F840C0C4F654739C4503D353
:105A1000D0F8003B002B1ED40023C0F8103BD0F878
:105A2000103B012943F40023C0F8103BD0F8103B91
:105A300043F01803C0F8103BD0F8103B43F0C041CE
:105A4000C0F8101B07D1C0F8142BD0F8001B41F090
:105A50008021C0F8001B00207047000000000000FB
:105A60004B780A78012B11D100F510605201835850
:105A700023F400138350C97801F0FE01022915D1E7
:105A8000115841F0805111500020704700F53060EE
:105A90005201835823F400138350C97801F0FE01AA
:105AA000022903D1115841F0805111500020704754
:105AB0004A780978012A00EB41100CD1002900F541
:105AC0001061D0F8000912D0002810D4086820F026
:105AD000804008600BE0002900F53061D0F8000B31
