S31508000000A02800243504000861590008F95700089B
S3150800001059590008291B0008B1960008000000007D
S31508000020000000000000000000000000F960000861
S31508000030A11C000800000000715D0008916100081D
S315080000404F0400084F0400084F0400084F04000836
S315080000504F0400084F0400084F0400084F04000826
S315080000604F0400084F0400084F0400084F04000816
S315080000704F0400084F0400084F0400084F04000806
S315080000804F0400084F0400084F0400084F040008F6
S315080000904F0400084F0400084F0400084F040008E6
S315080000A04F0400084F0400084F0400084F040008D6
S315080000B04F0400084F0400084F0400084F040008C6
S315080000C04F0400084F0400084F0400084F040008B6
S315080000D04F0400084F0400084F0400084F040008A6
S315080000E04F0400084F040008000000004F040008F1
S315080000F04F0400084F0400084F0400084F04000886
S315080001004F0400084F0400084F0400084F04000875
S315080001104F0400084F0400084F0400084F04000865
S315080001204F0400084F0400084F0400084F04000855
S315080001304F0400084F0400084F0400084F04000845
S3150800014000000000000000000000000000000000A1
S315080001504F0400084F0400084F0400084F04000825
S315080001604F0400084F0400084F0400084F04000815
S315080001704F0400084F0400084F0400080000000060
S315080001804F0400084F0400084F0400084F040008F5
S315080001904F0400084F0400084F0400084F040008E5
S315080001A04F0400084F0400084F0400084F040008D5
S315080001B04F0400084F0400084F0400084F040008C5
S315080001C04F0400084F0400084F0400084F040008B5
S315080001D04F040008D15900084F0400084F040008CE
S315080001E04F0400084F0400084F0400084F04000895
S315080001F04F0400084F0400084F0400084F04000885
S315080002004F0400084F0400084F0400084F04000874
S315080002104F0400084F0400084F0400084F04000864
S315080002204F0400084F0400084F04000800000000AF
S315080002304F0400084F040008000000004F0400089F
S315080002404F0400084F0400084F0400084F04000834
S315080002504F0400084F0400084F0400084F04000824
S315080002604F0400084F0400084F0400084F04000814
S315080002704F0400084F0400084F040008000000005F
S315080002804F0400084F0400084F040008000000004F
S31508000290000000004F04000800F002F800F0BBF868
S315080002A00AA090E8000C82448344AAF10107DA45C3
S315080002B001D100F0B0F8AFF2090EBAE80F0013F05A
S315080002C0010F18BFFB1A43F0010318475CD800005A
S315080002D07CD800000A444FF0000C10F8013B13F0DC
S315080002E0070408BF10F8014B1D1108BF10F8015B81
S315080002F0641E05D010F8016B641E01F8016BF9D174
S3150800030013F0080F1EBF10F8014BAD1C0C1B09D1CA
S315080003106D1E58BF01F801CBFAD505E014F8016B3C
S3150800032001F8016B6D1EF9D59142D6D370470000CE
S315080003300023002400250026103A28BF78C1FBD8E0
S31508000340520728BF30C148BF0B6070476E2900F0BE
S315080003502182702900F0638366290DF0888165295A
S315080003600DF0858167290DF0828161290DF0818163
S3150800037003681B0A28BF41F08001692900F0CE8175
S31508000380642900F0CB81752900F0C8816F2900F037
S31508000390F182782900F02F83E92900F08B82E4297D
S315080003A000F08882F52900F08582EF2900F0EE82B8
S315080003B0F82900F02E830368DB0928BF41F0800185
S315080003C0632901F00581732901F00A81E32901F007
S315080003D01581F32901F01A81002070471FB50DF029
S315080003E039F99DE8030000F089FC01F0E5F90400FD
S315080003F0002000210DF018F9401C60600020002143
S315080004000DF0FCF8E06001F07DFB1FBD10B5002083
S3150800041001F02FF910BD01F0A1F91146FFF7DEFF33
S315080004200CF012FA01F098FA03B4FFF7EFFF03BCD9
S3150800043001F08AF90948804709480047FEE7FEE7C0
S31508000440FEE7FEE7FEE7FEE7FEE7FEE7FEE7FEE776
S3150800045004480549054A064B7047000079620008BA
S3150800046099020008A0200024A0280024A024002423
S31508000470A02400241CB50C46064B7B446946009014
S31508000480204600F0A0F904460020694600F0AEF9BF
S3150800049020461CBD6F0300000B460146184600F0B7
S315080004A08DBB10B5431C02E010F8011B71B1810722
S315080004B0FAD14FF0013202C88C1A8C4314EAC211E1
S315080004C0F9D0C01A0A0603D0C01E10BDC01A10BD46
S315080004D00A0401D0801E10BD0902FCD0401E10BDC2
S315080004E070477047704770B5064600F0E3FB05682D
S315080004F006F10B0020F00704B4429CBF002070BD33
S315080005002B466A68BAB11068A04210D304F10801F4
S3150800051088423CBF5068586007D35168101941603B
S315080005201168091B016058601460101D70BD1346E0
S315080005305268002AE7D12146284600F0CBFB00285E
S31508000540DED170BD70B50446051F00F0B3FB006828
S31508000550002C14BF446870BD002C18BFAC423CBFC9
S3150800056020466468F8D301680A18AA4218BF45608D
S3150800057003D12A6805461144016028684119A14239
S315080005801CBF6C6070BD616869602168084428609A
S3150800059070BD2DE9F04791460C46804600F08AFB6F
S315080005A00768604234EA000001D1042C02D2052013
S315080005B0BDE8F087601E40F0070609F10B0020F041
S315080005C007054D4539D93B467A6882B31468101D2C
S315080005D0404206EA000C644525D9A4EB0C00854286
S315080005E021D8BCF1000F0BD0104601686244A1EB7C
S315080005F00C01116041685160C0F800C0586003469C
S31508000600116805F10800814205D35019491B01609C
S3150800061015605860034652F8040F58600020C8F861
S315080006200020BDE8F08713465268002ACED1294635
S31508000630384600F04FFB0028C5D10620BDE8F087F4
S3150800064010B500F03FFB006810BD10B5044600F079
S3150800065039FB046010BD70B5044685690068C1069B
S3150800066001D5302600E02026C00707D070BDD4E9A2
S31508000670012130469047206A401C20626D1EF6D53F
S3150800068070BD70B5044685690078C00707D170BD8E
S31508000690D4E9012120209047206A401C20626D1E63
S315080006A0F6D570BD09684A0501D540B27047C90537
S315080006B0FCD500B2704709684A0501D5C0B2704733
S315080006C0C905FCD580B2704770B50C460546012AA7
S315080006D005D02878800600D5EA69002302E00123C0
S315080006E005E05B1C934202D2E05C0028F9D1A869B8
S315080006F0E618C01AA861286A184428622846FFF72F
S31508000700AAFF04E0D5E9012114F8010B9047B44289
S31508000710F8D32846FFF7B5FF70BD00002DE9F04174
S315080007200646002410687529314616A510D0FFF72D
S31508000730B9FF002802DA404213A507E031688A07A4
S3150800074001D512A502E0490704D511A5012401E047
S31508000750FFF7B1FF00210A2206F1240709E0B0FBE2
S31508000760F2FCB0FBF2F302FB1C003030785418465A
S31508000770491C0028F3D123462A463046BDE8F041F5
S3150800078000F037BB000000002D0000002B00000021
S315080007902000000011680268006A530501D5087038
S315080007A00AE0D30501D5088006E0130603D5C2176B
S315080007B0C1E9000200E008600120704701694A1C8F
S315080007C002610878704700B58FB0CDE90131002184
S315080007D0059105497944CDE903101146684600F0AC
S315080007E029F90FB000BD0000E5FFFFFF0A6802F80F
S315080007F0010B0A60704700002DE9FF5F15468A461F
S315080008000446DFF8AC80F8440027D8E900103E46D5
S31508000810CDE9001010E05AF826106A4602A800F042
S31508000820F9FE411C07D02178890603D5E2693918F3
S3150800083091420DD80744761C2078800602D5E069D7
S31508000840B84205DDAE42E6DB5AF826000028E2D1BA
S31508000850A069C01BA0612046FFF7FDFED8E900107D
S31508000860CDE90010002017E05AF828106A4602A8B9
S3150800087000F0D0FEB0F1FF3F81460BD000250DF108
S31508000880080B05E0D4E901211BF8050090476D1C0B
S315080008904D45F7D308F10100B0428046E4DB206AF3
S315080008A0384420622046FFF7ECFEBDE8FF9F0000B3
S315080008B08ACF00002DE9F0418046D21D22F00702BA
S315080008C00025D2E90002F52915A614D0011E72F1F9
S315080008D0000106DA0023D0EB030063EB020211A63F
S315080008E008E0D8F800108B0701D50FA602E04907E3
S315080008F001D50EA601251146002408F1240704E0B7
S3150800090000F032FA30323A55641C50EA0102F7D147
S315080009102B46324621464046BDE8F04100F069BA0A
S31508000920000000002D0000002B0000002000000041
S3150800093030B4002100F1240408E002F00705D208CB
S31508000940303542EA4372DB086554491C52EA03050E
S31508000950F3D10468002310A2250708D504F0200463
S315080009600C4304D0C46901230CA2641EC46130BCC4
S3150800097000F03FBA10B5044621461068FFF79BFE03
S3150800098002462046BDE810400023D1E7D21D22F0DA
S315080009900701D1E90023CBE7000000003000000082
S315080009A0F0B40D460188090502D5214C7C4402E0C5
S315080009B01F4C7C440E34002100F1240608E002F0A6
S315080009C00F071209E75D42EA03721B097754491CAF
S315080009D052EA0307F3D102780023120704D5702DD3
S315080009E006D009B1022311342246F0BC00F001BA40
S315080009F001231034F8E770B504460D462146106801
S31508000A00FFF759FE024629462046BDE870400023F6
S31508000A10C6E7D21D22F00703D3E90023C0E703681F
S31508000A20126843F0200303600823C3610023B7E775
S31508000A30ECCD00002DE9F05F894604464FF0000A28
S31508000A40DFF874B1FB44C0F820A02046E168884767
S31508000A50002874D0252806D0D4E901219047206AB9
S31508000A60401C2062F1E700265F462046E168884779
S31508000A702028054607DB312D05D2781910F8200CF9
S31508000A8008B10643F1E7B00701D526F00406C4F815
S31508000A901CA00027C4F818A02A2D09D028460CF057
S31508000AA0A5FD38B304EB8708303DC8F8185019E09F
S31508000AB059F8041B204604EB87029161E1688847D0
S31508000AC0012F054618D1E069002820DA26F020060D
S31508000AD01DE0D8F8180000EB800005EB4000303820
S31508000AE0C8F818002046E168884705460CF07EFDE0
S31508000AF00028EED1012F0AD02E2D08D12046E16814
S31508000B0088477F1C0546022F46F02006C4DBA069ED
S31508000B10002803DA404246F00106A061F00701D03A
S31508000B2026F010066C2D0BD0682D09D04C2D39D027
S31508000B306A2D35D0742D35D07A2D33D016E038E0AD
S31508000B40E1682F4620468847B842054609D16C2FEA
S31508000B5026D04FF48060E16806432046884705465C
S31508000B6004E06C2F1AD04FF4807006430DB3A5F13C
S31508000B704100192802D8203546F400664A46294617
S31508000B80204626604E46FFF7E1FB80B101280BD0D0
S31508000B90F61D26F0070000F1080956E74020E4E7AD
S31508000BA08020D8E70020D6E706F104094DE7284655
S31508000BB052E7206ABDE8F09F7CCD00002DE9F041A0
S31508000BC0074615460E461020FFF78DFC04000AD08E
S31508000BD06760C4E9026500F071F801682160046085
S31508000BE00020BDE8F0810120FBE74FF0000200B5C8
S31508000BF0134694469646203922BFA0E80C50A0E832
S31508000C000C50B1F12001BFF4F7AF090728BFA0E8DF
S31508000C100C5048BF0CC05DF804EB890028BF40F8AB
S31508000C20042B08BF704748BF20F8022B11F0804FED
S31508000C3018BF00F8012B704730B44FF0013C50F84C
S31508000C40042BCCFA52F451F8043BD51A20D1FCB93E
S31508000C5050F8042BCCFA52F451F8043BD51A17D1A4
S31508000C60B4B950F8042BCCFA52F451F8043BD51A0F
S31508000C700ED16CB950F8042BCCFA52F451F8043B57
S31508000C80D51A05D1002CDAD030BC4FF000007047D9
S31508000C9029BAB1FA81F111F01801D1F12000844086
S31508000CA0F2D1CA40CB4012F0FF0213F0FF0330BC6A
S31508000CB0D01A704700487047F00100240048704772
S31508000CC02002002400487047E80100247047704756
S31508000CD07047704738B504460A4600206946AFF3A0
S31508000CE00080002808BF38BD02460099204600F05B
S31508000CF067FD012038BD012000F03EBEF8B5AFF310
S31508000D000080054600200C46102000BF0646A8199C
S31508000D10A0420DD9324669460020AFF3008007008D
S31508000D2008BF00F029FE0098A04218BF0546C4195E
S31508000D30FFF7C0FF05600746F01D20F007004619BB
S31508000D40284600F00AF8B44208BFF8BDA21B31468F
S31508000D503868BDE8F84000F033BD00210160C0E9FD
S31508000D60011070471020704730B5B0F10A0271F1D2
S31508000D7000034FEA900E4EEA817EB0EB0E0061EB5F
S31508000D8091014FEA101E4EEA017E10EB0E0041EB70
S31508000D9011114FEA102E4EEA016E10EB0E0041EBD0
S31508000DA011214FEA104E4EEA014E10EB0E0041EBB0
S31508000DB01141401841F100014FEAD00040EA417064
S31508000DC04FEAD1014FEA810444EA907410EB80059A
S31508000DD044EB01046D1944EB0404521BA3414FF084
S31508000DE0000348BF0A3200D530BD401C41F100015E
S31508000DF030BD2DE9F0470D4699469246044600F166
S31508000E0024080168880604D5E06921F010012160EC
S31508000E1000E00120A84201DD471B00E00027A16988
S31508000E207A1902EB0900081AA0612078C00602D4D4
S31508000E302046FFF710FC002608E0D4E901211AF83D
S31508000E4006009047206A401C761C20624E45F4DB5B
S31508000E502078C0060AD52046FFF7FDFB06E0D4E950
S31508000E60012130209047206A401C2062381EA7F1D5
S31508000E700107F4DC07E0D4E9012118F805009047DA
S31508000E80206A401C2062281EA5F10105F3DC2046D5
S31508000E90FFF7F7FB2078000602D50220BDE8F087A9
S31508000EA00120FBE72DE9FF4F0C461E464FF0FF37A2
S31508000EB08BB0D2E90001DDF860800A908A46C1F35A
S31508000EC00A5505B93D46002108464FF00000BAF11B
S31508000ED0000F00F4400005DA00EB80004FF44001F3
S31508000EE001EA50004FEA9059B9F1010F00DDB94601
S31508000EF00A9850EA4A000ED044F61050A5F2FF357B
S31508000F0045432F14B8F1000F1ED07542291E1EDD69
S31508000F10C9F100021CE0B8F1010F4FF0000001D042
S31508000F20302103E0F24305E02154401CB042FBDBCC
S31508000F3030460022002121540B99C1F80880C1E9E6
S31508000F4000200FB0BDE8F08FBD1B6D1CDEE74A46DA
S31508000F5000DA694206A800F08DFC06AB93E80700A4
S31508000F6003AB83E8070050460A990BF01DFD8DE890
S31508000F700700A0F500501F3800900398002D0ADDE1
S31508000F8042F21F014A460844002303A90390684613
S31508000F900BF086FF09E0A0F500504A461F380023EB
S31508000FA003A9039068460BF090FF8DE8070000043C
S31508000FB0000C03D04FF0FF30410800E01046B8F1AE
S31508000FC0000F03D00022009215461EE0751E05D4B8
S31508000FD0FFF7CAFE303262556D1EF9D5B3460122B7
S31508000FE0084302D000227F1C04E02078302801D173
S31508000FF000227F1E002A099784D01DE0112D07DAEA
S31508001000FFF7B2FE303262556D1C50EA0102F5D187
S31508001010084302D00098C8B10EE00021681E05E01A
S31508001020235C625C63542254401E491C8142F7DBF0
S31508001030AB46A81B401E0990002004F80B000B982D
S31508001040099AC0F80880C0E9002B7AE711264FF004
S31508001050000857E72DE9F04F88460446D21D22F0CE
S31508001060070191B0D1E90001CDE90A010CF064F855
S3150800107002460B98C00F01D02D2007E02068810793
S3150800108001D52B2002E0202101EAC000032A09909D
S3150800109001D0072A05DB03464146204600F0AAFB95
S315080010A00BE12078800601D5E06900E00620B8F15A
S315080010B0650F814606D0B8F1660F18D0B8F1670FEC
S315080010C070D131E00020B9F1110F009001DB112336
S315080010D001E009F101030AAA01A90CA8FFF7E2FE3B
S315080010E0DDE90C70002609F10105834647E0012079
S315080010F04B4600904FF000470AAA01A90CA8FFF733
S31508001100D1FEDDE90DB00C995D46002610B909F14E
S3150800111001000D18B9EB050003D4C0F1FF3609F13B
S315080011200105A5EB09002BE0B9F1010F01DA4FF033
S3150800113001090020B9F1110F0090484601DD11237D
S3150800114000E003460AAA01A90CA8FFF7ABFEDDE9F1
S315080011500C704D4600268346207800070AD4AB4516
S3150800116000DA5D4601A8012D04DD411911F8011CBC
S31508001170302907D04F4502DA17F1040F04DA0120A7
S3150800118082460FE06D1EEEE7002F02DCED1B3E44A3
S3150800119003E0781CA84200DD7D1CB81B00F1010A9B
S315080011A04FF000472078000703D4AA4501DB4FF02B
S315080011B0FF3A0021B7F1004F0DF143088DF84310AF
S315080011C024D002202B23002F01DA7F422D230A2167
S315080011D0021EA0F1010000DC5FB197FBF1FC97FB52
S315080011E0F1F201FB1C7C17460CF1300C08F801CD16
S315080011F0EEE7A8F1010003702188090501D545210C
S3150800120000E06521A0F1010800F8011C09980FA962
S31508001210A1EB0807FF1D00B10120411901EBEA7097
S31508001220A1693844081A401EA0612078C00602D475
S315080012302046FFF710FA099828B1D4E9012190470A
S31508001240206A401C20622078C00622D52046FFF777
S3150800125002FA1EE0002E04DBB34502DD01A8805D1C
S3150800126000E03020D4E901219047206A401C206222
S31508001270761CAAF101005FEA000A0AD100F09CFA7E
S31508001280C0680168405CD4E901219047206A401C87
S315080012902062281EA5F10105DCDC07E0D4E901215E
S315080012A018F8010B9047206A401C2062381EA7F1E7
S315080012B00107F3DC2046FFF7E4F9032011B041E605
S315080012C02DE9F04F04460D46D21D22F0070089B0DD
S315080012D0D0E90097484639460BF02EFF0246F80F2C
S315080012E001D02D2307E02068810701D52B2302E0D2
S315080012F0202101EAC0038DF820300BB1012000E05F
S315080013000020032A824601D0072A04DB2946204604
S3150800131000F070FA3FE12078800601D40D2500E040
S31508001320E569C7F30A560D2D49DA00214FEA175B1E
S3150800133008464FF00000002F00F4400007DA00EBE3
S3150800134080004FF4400100EBD07001EA600081157F
S31508001350012901DD4FF0FF3100224FEA850CBCF16F
S31508001360180F06D31346ACF118004FF08052C2404E
S3150800137003E04FF4801323FA0CF30CF10C0CBCF1C8
S31508001380200F04D3ACF1200C09FA0CF001E007FA9F
S315080013900CF000294FF0004801DD18B90FE00ED116
S315080013A040450CD319EB02095F4121B9404502D1EA
S315080013B09F4329EA0209BBEB175F00D0761C2088F9
S315080013C0000502D57B48784402E07A487844193803
S315080013D008AA302302F80A30037C0AF10101002E1C
S315080013E00AF1020A53546A4602DC4FF0300101E062
S315080013F04FF031014FF001088DF8001002D0A6F227
S31508001400FF3603E059EA470100D06B4E002D02DC97
S315080014102178090704D54FF002082E218DF801100E
S31508001420C44600210BE0C7F303433F01C35C491CD4
S315080014306D1E02F80830052908F1010801DA002DA9
S31508001440F1DC00210CE000EB1973491C1B786D1EBA
S31508001450082902F808304FEA091908F1010801DAE3
S31508001460002DF0DC21688B0602D516E0A8F10108EC
S31508001470E04505DD02EB080313F8013C302BF5D0F7
S31508001480B8F1000F09DD02EB080313F8013C2E2B17
S3150800149003D1090701D4A8F10108002D05DD3E2175
S315080014A002F808106D1E08F10108407C002E02F8AB
S315080014B0080008F1010804DA2D20764202F808002F
S315080014C002E02B2002F808000A214FF47A708642BF
S315080014D008F101080BDB96FBF0F3303302F808300D
S315080014E096FBF0F308F1010800FB136601E0642E91
S315080014F00CDB642096FBF0F3303302F8083096FBD9
S31508001500F0F308F1010800FB136601E00A2E06DB7A
S3150800151096FBF1F0303002F8080008F1010896FB56
S31508001520F1F001FB1060303002F80800A16908F1FB
S31508001530010808EB050202EB0A00081AA0612078E8
S31508001540C00602D42046FFF786F8216A08AE01EBEA
S315080015500A00206204E0D4E9012116F8010B90473D
S31508001560BAF1010AF7D22078C00602D52046FFF75D
S3150800157072F86E4609E016F8010B3E280FD0D4E93A
S3150800158001219047206A401C2062B8F10108F2D276
S315080015902046FFF776F809B00320BDE8F08F206AE9
S315080015A02844206203E0D4E90121302090476D1ECB
S315080015B0EBD3F8E741C4000002FCFFFF10B543690E
S315080015C013B1AFF3008001E0FFF77EF8012010BDEC
S315080015D0127800F124010A7000224A700122EDE710
S315080015E011684FF0FF32E9E710B5436913B1AFF35D
S315080015F0008001E0FFF700F9012010BD126800F134
S3150800160024014262002282620122EDE711684FF04E
S31508001610FF32E9E72DE9F04116460C46054600F08B
S31508001620C3F8036893F80101012807D0FF2C12D8E4
S31508001630185D80B101202C70BDE8F081D3F8070150
S315080016403246214603F20713C7182846BC46BDE8AA
S31508001650F041012360474FF0FF30EDE710B5002059
S3150800166000F083F9FEF7D2FEBDE81040012000F035
S315080016706BB82DE9F0410646FFF720FB8046454644
S3150800168013E016B1E068B0420ED120682860D4E9AC
S315080016900101D8F8007088472046FEF753FFD8F8AE
S315080016A00000B842EBD100E025462C68002CE8D1B2
S315080016B0BDE8F08110B5203AC0F00B80B1E81850AB
S315080016C0A0E81850B1E81850A0E81850203ABFF41E
S315080016D0F5AF5FEA027C24BFB1E81850A0E81850BD
S315080016E044BF18C918C0BDE810405FEA827C24BF11
S315080016F051F8043B40F8043B08BF7047D20728BF9F
S3150800170031F8023B48BF11F8012B28BF20F8023BED
S3150800171048BF00F8012B704780E8FF1FC0F834D097
S31508001720C0F838E0C0F83CE04FF00000704700BF52
S3150800173080EC200B704700BF80EC200B704700BF81
S31508001740C0EC200B7047000001491820ABBEFEE72D
S315080017502600020000487047E80100247546FFF796
S31508001760F9FFAE4605006946534620F00700854650
S3150800177018B020B5FEF76CFEBDE820404FF0000615
S315080017804FF000074FF000084FF0000BAC46ACE8EE
S31508001790C009ACE8C009ACE8C009ACE8C00921F04A
S315080017A007018D467047000010B500F005F8001DCA
S315080017B010BD00BF75BE000000487047080200242F
S315080017C0034640688C46002818BF88423CBF03463B
S315080017D04068F8D318681844884207D00CF103000B
S315080017E020F00700001D411A521A0146081D0A601A
S315080017F0FEF7A8BE2DE9F0411F46044603260168F8
S31508001800072A01F4006004DB08B116A505E016A551
S3150800181003E008B115A500E015A521F01000206029
S31508001820A069C01EA0610FB1401EA0612046FEF748
S3150800183012FF4FB1D4E9012138469047206A401C6F
S315080018402062C01C206206E0206AFAE7D4E901217A
S3150800185015F8010B9047761EF8D22046FEF711FFC1
S31508001860BDE8F0814E414E006E616E00494E46005D
S31508001870696E66002DE9F047814616468AB03548F6
S3150800188078440DC88DE80D0032487844801C03ACB6
S315080018900DC884E80D0041F69B300844372190FBBB
S315080018A0F1F290FBF1F5A5F1800501FB12041B3C52
S315080018B002D56442012000E00020DFF898A08046A7
S315080018C00027FA44AAF1BE0A0EE0E0070AD032461B
S315080018D0684607EB470101230AEB81010BF0F5FA8D
S315080018E08DE8070064107F1C002CEED1194F7F4449
S315080018F0AE3F19E0E80715D007EB04100DF1180AFA
S3150800190090E80E008AE80E00C068F04201D19819E6
S3150800191008903246012306A903A80BF0D6FA03ABB2
S3150800192083E807006D10641C002DE3D14FF0010316
S3150800193032466946B8F1000F03A802D00BF0B0FA98
S3150800194001E00BF0C2FAC9E90001C9F808200AB09B
S31508001950BDE8F08718C0000010B50446AFF3008054
S315080019602046BDE81040FEF75FBD10B500F06AF8E6
S31508001970BDE8104000F060B810B500F07BF8BDE88F
S31508001980104000F059B8032A40F2308010F0030CDA
S3150800199000F0158011F8013BBCF1020F624498BFB4
S315080019A011F801CB00F8013B38BF11F8013BA2F151
S315080019B0040298BF00F801CB38BF00F8013B11F0CC
S315080019C003033FF477AE083AC0F0088051F8043BA9
S315080019D0083A51F804CBA0E80810F5E7121D5CBFD9
S315080019E051F8043B40F8043BAFF30080D20724BF0C
S315080019F011F8013B11F801CB48BF11F8012B24BFA0
S31508001A0000F8013B00F801CB48BF00F8012B7047EE
S31508001A1086469EE8FF1FDEF834D0DEF83CE07047C5
S31508001A2090EC200B704700BF90EC200B704700BF6E
S31508001A30D0EC200B70477047002801D0FFF784BE12
S31508001A407047000010B5002102A000F03BF8012005
S31508001A5010BD0000534947414252543A2041626E34
S31508001A606F726D616C207465726D696E6174696FF1
S31508001A706E00000010B5012805D0002103A000F073
S31508001A8021F8012010BD09A1F8E700005349475283
S31508001A90544D454D3A204F7574206F662068656130
S31508001AA070206D656D6F7279000000003A204865F8
S31508001AB06170206D656D6F727920636F72727570D3
S31508001AC07465640070B505460C460A2000E06D1C76
S31508001AD000F011F835B128780028F8D102E0641C26
S31508001AE000F009F814B120780028F8D1BDE8704054
S31508001AF00A20AFF3008008B569468DF80000032078
S31508001B00ABBE08BD70B5064C7C44064D7D4404E06A
S31508001B102046016808448047241DAC42F8D170BDB0
S31508001B2068C1000068C10000FFE7FEE7000000008A
S31508001B3083B08DF80B000191ADF802209DF80B00DB
S31508001B4023281CD8DFE800F012131415161B1B1BDC
S31508001B501B1B1B1B1B1B1B1B1B1B1B1B1B1B1B1BC7
S31508001B601B1B1B1B1B1B1B1B1718191A08E007E05E
S31508001B7006E005E004E003E002E001E000E0FFE73C
S31508001B80002003B0704700000020704700000000E6
S31508001B9010B540F2C024C2F2004440F29051C2F29D
S31508001BA000412046002204F0F7FE40F69051C2F2AA
S31508001BB00041204604F0D4FE002010BD00000000BD
S31508001BC010B582B001900091019940F2C024C2F28A
S31508001BD00044204604F0C4FE204604F079FE0020A6
S31508001BE002B010BD0000000083B0029001918DF88C
S31508001BF0032000208DF802009DF9020003B070470B
S31508001C0010B588B00690ADF8161000248DF815406A
S31508001C1040F2C020C2F20040D0F8BC02049000F0A6
S31508001C209FFA03940290FFE70498D0F8140278B15B
S31508001C30FFE700F095FA0299039A401A4FF000015F
S31508001C4091410B3871F1000001DBFFE701E0EBE79A
S31508001C50FFE740F2C020C2F20040D0F8BC02019073
S31508001C600198D0F8140220B1FFE701208DF81F0073
S31508001C7013E00699BDF8162040F2C024C2F20044CB
S31508001C80204604F089FE204604F066FF8DF815000C
S31508001C909DF815008DF81F00FFE708B010BD00007D
S31508001CA0704700000000000081B0EFF3108072B6A4
S31508001CB00090FFE7FEE7000010B584B04EF600007E
S31508001CC0C1F6F170006803904EF60400C1F6F17093
S31508001CD0006802904EF60800C1F6F170006801909F
S31508001CE00198039908440390039880B1FFE7039885
S31508001CF040F24C14C2F20044A11C082203F080FDF5
S31508001D00029804F11201042203F07AFDFFE704B0F9
S31508001D1010BD00000000000080B584B001200390CB
S31508001D2000F01EFA0290039801900198013020B144
S31508001D30FFE7019801300190FFE7FFE700F010FA8E
S31508001D400299401A0199884201D2FFE7F6E704B0E2
S31508001D5080BD00000000000087B0069005910020B5
S31508001D6004908020C5F600000190FFE705980068FA
S31508001D700499C840002800F0B981FFE70598006873
S31508001D800499012202FA01F10840039003980028F9
S31508001D9000F0A881FFE70598406800F003000128D5
S31508001DA007D0FFE70598406800F0030002282FD106
S31508001DB0FFE706988068029004984000032101FA1C
S31508001DC000F0029921EA000002900598C06804997B
S31508001DD0490088400299084302900298069988604B
S31508001DE00698406802900498012101FA00F00299C9
S31508001DF021EA0000029005984068C0F30010049993
S31508001E008840029908430290029806994860FFE7BD
S31508001E100598406800F00300032818D0FFE70698E5
S31508001E20C068029004984000032101FA00F0029964
S31508001E3021EA0000029005988068049949008840C4
S31508001E4002990843029002980699C860FFE7059828
S31508001E50406800F00300022826D1FFE70698049997
S31508001E606FF0030202EA51010844006A02900498DE
S31508001E7000F0070080000F2101FA00F0029921EA1C
S31508001E800000029005980069049901F0070189008D
S31508001E90884002990843029002980699049B02EA30
S31508001EA0530211440862FFE70698006802900498F6
S31508001EB04000032101FA00F0029921EA000002908D
S31508001EC00598406800F00300049949008840029983
S31508001ED00843029002980699086005988079800759
S31508001EE0002800F0FE80FFE7FFE744F2F440C5F65D
S31508001EF00200016841F002010160006800F002007A
S31508001F0000900098FFE7049820F0030040F208418B
S31508001F10C5F6000140580290049800F003008000BE
S31508001F200F2101FA00F0029921EA000002900698B2
S31508001F300021C5F60201884202D1FFE7002061E0D0
S31508001F40069840F20041C5F60201884202D1FFE731
S31508001F50012056E0069840F60001C5F602018842BF
S31508001F6002D1FFE702204BE0069840F60041C5F68D
S31508001F700201884202D1FFE7032040E0069841F2B9
S31508001F800001C5F60201884202D1FFE7042035E0C8
S31508001F90069841F20041C5F60201884202D1FFE7E0
S31508001FA005202AE0069841F60001C5F60201884296
S31508001FB002D1FFE706201FE0069841F60041C5F664
S31508001FC00201884202D1FFE7072014E0069842F290
S31508001FD00001C5F60201884202D1FFE7082009E0A0
S31508001FE0069942F20042C5F602020A20914208BF4B
S31508001FF00920FFE7FFE7FFE7FFE7FFE7FFE7FFE760
S31508002000FFE7FFE7049901F0030189008840029978
S31508002010084302900298049921F0030140F208420D
S31508002020C5F6000288504FF0B04000680290039849
S31508002030029921EA0000029005988079C0060028D6
S3150800204005D5FFE70398029908430290FFE702982F
S315080020504FF0B04108600420C5F600000068029001
S315080020600398029921EA0000029005988079800673
S31508002070002805D5FFE70398029908430290FFE771
S3150800208002980421C5F6000108600198406802908C
S315080020900398029921EA0000029005988079800742
S315080020A0002805D5FFE70398029908430290FFE741
S315080020B0029801994860019800680290039802996D
S315080020C021EA0000029005988079C00728B1FFE749
S315080020D00398029908430290FFE70298019908605D
S315080020E0FFE7FFE70498013004903FE607B0704722
S315080020F083B00290ADF806100298406900900098E7
S31508002100BDF8061000EA010221EA000040EA024092
S315080021100299886103B0704783B040F60000C5F69F
S31508002120020002904FF40050ADF80600002000901F
S31508002130009828B1FFE7BDF806000299886105E016
S31508002140BDF80600000402998861FFE703B07047EE
S3150800215041F20000C5F600400068000C7047000018
S3150800216040F2B820C2F20040006870470000000044
S3150800217040F2B820C2F200400168013101607047A0
S3150800218080B582B000F09CF802F03EFB44F218419C
S31508002190C5F602010A68C2F303224DF6C823C0F643
S315080021A000039A5C02F01F02D0400090009809686C
S315080021B001F00F01595C01F01F01C84040F204010B
S315080021C0C2F200410860009840F20001C2F20041E4
S315080021D008600F2000F00CF818B1FFE70120019005
S315080021E004E000F035F800200190FFE702B080BD5A
S315080021F080B582B00090FFE740F20000C2F20040CE
S31508002200006844F6D351C1F26201A0FB01018809B6
S3150800221003F0DAF918B1FFE70120019015E00098FC
S315080022200F280CD8FFE700994FF0FF3000F030F880
S31508002230009840F20801C2F20041086002E001205D
S31508002240019002E000200190FFE7019802B080BDEE
S3150800225081B0FFE744F2F440C5F60200016841F098
S3150800226002010160006800F0020000900098FFE794
S3150800227001B070470000000080B582B0652001906B
S31508002280019809F061FE02B080BD00000000000060
S3150800229010B584B0039002910020019009F06CFEFD
S315080022A00090039C00980299019A03F05DFB014691
S315080022B0204609F069FE04B010BD000000000000C9
S315080022C080B582B003200190019809F07DFE02B026
S315080022D080BD00000000000082B0019001980068EF
S315080022E0009001980121C0F8001401980021C0F857
S315080022F0F8130098816941F0006181610098416D89
S315080023000322C1F200021143416502B07047000082
S3150800231082B00190009102B07047000000000000F2
S3150800232082B041F29070C2F2004001904FF4007002
S31508002330ADF80200BDF8020001990968486202B0CA
S31508002340704700000000000084B041F29072C2F2AB
S31508002350004203928DF80B00ADF808100398006848
S31508002360406A00909DF80B0048B9FFE7BDF80800E1
S31508002370009941EA004003990968886233E00398A6
S315080023800068806A009901EB1040009000208DF8E3
S315080023900700FFE79DF807009DF80B1001398842F2
S315080023A013D2FFE7039800689DF8071000EB810039
S315080023B0D0F80401009901EB10400090FFE79DF862
S315080023C0070001308DF80700E4E7BDF8080000991A
S315080023D041EA0040039909689DF80B2001EB820148
S315080023E0C1F80001FFE704B07047000000000000D4
S315080023F080B582B001900198D0F8080405F004F978
S3150800240002B080BD0000000080B582B001908DF852
S315080024100310019AD2F808049DF80310C1EBC10312
S3150800242002EB8302926C04F0DFFF02B080BD00006D
S3150800243080B582B001908DF80310019AD2F808048D
S315080024409DF80310C1EBC10302EB8302D2F8082200
S3150800245005F06AF802B080BD80B582B00190019897
S31508002460D0F8080405F0D4F802B080BD00000000DA
S3150800247080B584B002908DF807109DF80700000615
S3150800248000280FD5FFE702989DF8071001F00F0105
S31508002490C1EBC10100EB81003C300090009801219E
S315080024A041700FE002989DF8071001F00F01C1EB8B
S315080024B0C10100EB810000F5FE7000900098002134
S315080024C04170FFE79DF8070000F00F0000990870BB
S315080024D0FFE70298D0F8BC03012803D1FFE70220E2
S315080024E0039013E002980121C0F8BC13FFE7FFE749
S315080024F002980068009905F0DFFFFFE702980021BF
S31508002500C0F8BC13FFE700200390FFE7039804B068
S3150800251080BD00000000000080B584B002908DF8F0
S3150800252007109DF8070000F00F00029949688842D5
S3150800253003D9FFE7012003904BE09DF8070000064A
S3150800254000280FD5FFE702989DF8071001F00F0144
S31508002550C1EBC10100EB81003C30009000980121DD
S3150800256041700FE002989DF8071001F00F01C1EBCA
S31508002570C10100EB810000F5FE7000900098002173
S315080025804170FFE70098002181709DF8070000F070
S315080025900F0000990870FFE70298D0F8BC030128DD
S315080025A003D1FFE70220039013E002980121C0F847
S315080025B0BC13FFE7FFE702980068009906F0F0FAF7
S315080025C0FFE702980021C0F8BC13FFE7002003903C
S315080025D0FFE7039804B080BD82B001908DF8031020
S315080025E001989DF8031001F00F01C1EBC10100EB42
S315080025F08100D0F8140202B0704700000000000005
S3150800260080B586B004908DF80F10ADF80C208DF8C3
S315080026100B30002001909DF80F00000600280FD50A
S31508002620FFE704989DF80F1001F00F01C1EBC101F7
S3150800263000EB81003C3000900098012141700FE0CA
S3150800264004989DF80F1001F00F01C1EBC10100EBD2
S31508002650810000F5FE700090009800214170FFE7A8
S315080026609DF80F0000F00F0000990870BDF80C00E7
S31508002670009988609DF80B000099C870009840780A
S3150800268020B1FFE700980178C180FFE79DF80B00AD
S31508002690022804D1FFE7009800210171FFE7FFE750
S315080026A00498D0F8BC03012803D1FFE7022005905F
S315080026B013E004980121C0F8BC13FFE7FFE704986C
S315080026C00068009905F0B0FDFFE704980021C0F8FE
S315080026D0BC13FFE701980590FFE7059806B080BD93
S315080026E080B586B005908DF813100392029305986D
S315080026F09DF8131001F00F01C1EBC10100EB810039
S3150800270000F5FE70019003980199C8600298019936
S315080027104861019800218161019841709DF8130074
S3150800272000F00F000199087005980069012804D186
S31508002730FFE7039801990861FFE79DF81300000772
S3150800274038B9FFE7059A10680199127C06F0E4F893
S3150800275006E0059A10680199127C06F0C5FAFFE7AB
S3150800276006B080BD0000000080B584B002908DF8E8
S3150800277007109DF8070000F00F0002994968884283
S3150800278003D9FFE70120039056E09DF807000006ED
S3150800279000280FD5FFE702989DF8071001F00F01F2
S315080027A0C1EBC10100EB81003C300090009801218B
S315080027B041700DE002989DF80710C1EBC10100EBCE
S315080027C0810000F5FE700090009800214170FFE737
S315080027D00098012181709DF8070000F00F0000990C
S315080027E00870FFE70298D0F8BC03012803D1FFE779
S315080027F00220039020E002980121C0F8BC13FFE7ED
S31508002800FFE702980068009906F01AFA9DF8070093
S31508002810000740B9FFE7029A1068117C02F5727248
S3150800282006F072F9FFE7FFE702980021C0F8BC132B
S31508002830FFE700200390FFE7039804B080BD00007F
S3150800284080B586B005908DF813100392029305980B
S315080028509DF8131001F00F01C1EBC10100EB8100D7
S315080028603C30019003980199C86002980199486123
S315080028700198002181610198012141709DF813009A
S3150800288000F00F000199087005980069012804D125
S31508002890FFE7039801990861FFE79DF81300000711
S315080028A038B9FFE7059A10680199127C06F034F8E2
S315080028B006E0059A10680199127C06F015FAFFE7FA
S315080028C006B080BD0000000010B58AB041F29070D5
S315080028D0C2F2004009900998006808900898079085
S315080028E00998006806F060FC002840F03B83FFE783
S315080028F00998006806F0C8FC08B9FFE732E30998AA
S31508002900006806F0C1FC8007002807D5FFE709988C
S315080029100068416901F002014161FFE70998006812
S3150800292006F0B2FCC00600285FD5FFE709980068E4
S31508002930816921F0100181610898006A0090099860
S31508002940009901F00F01C1EBC10100EB810000F510
S31508002950FE700690009800F4F0100221B1EB504F7B
S3150800296021D1FFE7BDF8000047F6F071084219D0FB
S31508002970FFE708980699C968009AC2F30A1206F092
S3150800298093FC009847F6F0710840069AD36803EB63
S315080029901010D0600098084006998A6902EB10105A
S315080029A08861FFE71AE0009800F4F0100621B1EB01
S315080029B0504F11D1FFE70898099901F5727108225D
S315080029C006F072FC009847F6F071084006998A6985
S315080029D002EB1010886100E0FFE7FFE7099800683E
S315080029E0816941F010018161FFE70998006806F0E6
S315080029F04BFC0003002870D5FFE7002002900998D9
S31508002A00006806F0EDFB0490FFE70498002863D001
S31508002A10FFE79DF81000C007002856D0FFE7099881
S31508002A2000689DF8081006F017FC03909DF80C0046
S31508002A30C00760B1FFE70798029900EB4110012132
S31508002A40C0F8081B0998029903F00AF8FFE79DF8F1
S31508002A500C00000700280CD5FFE70798029900EB41
S31508002A6041100821C0F8081B0998029902F0B4FF22
S31508002A70FFE79DF80C00C006002808D5FFE7079871
S31508002A80029900EB41101021C0F8081BFFE79DF8DA
S31508002A900C008006002808D5FFE70798029900EB86
S31508002AA041102021C0F8081BFFE79DF80D0080069D
S31508002AB0002809D5FFE70798029900EB41104FF463
S31508002AC00051C0F8081BFFE7FFE7029801300290A3
S31508002AD004984008049098E7FFE70998006806F00C
S31508002AE0D3FB4003002840F1B180FFE7099800684E
S31508002AF006F062FB049000200290FFE70498002885
S31508002B0000F0A380FFE79DF81000C007002800F03A
S31508002B109580FFE7099800689DF8081006F074FB91
S31508002B2003909DF80C00C00700283FD0FFE70298E5
S31508002B3000F00F00012101FA00F001900198079AB0
S31508002B40D2F8343823EA0000C2F834080798029A03
S31508002B5000EB4210C0F808190998006901281FD12E
S31508002B60FFE709980299C1EBC10100EB8100416CAE
S31508002B70826C11448164029888B9FFE70998029922
S31508002B80C1EBC10100EB8100006D40B9FFE709996F
S31508002B90086801F57272012105F0B6FFFFE7FFE745
S31508002BA009989DF80810FFF72FFCFFE79DF80C0021
S31508002BB00007002808D5FFE70798029900EB41109F
S31508002BC00821C0F80819FFE79DF80C00C006002880
S31508002BD008D5FFE70798029900EB41101021C0F8C5
S31508002BE00819FFE79DF80C004006002808D5FFE7FE
S31508002BF00798029900EB41104021C0F80819FFE731
S31508002C009DF80C00800700280CD5FFE70898029964
S31508002C1006F062FA0798029900EB41100221C0F803
S31508002C200819FFE79DF80C000006002805D5FFE700
S31508002C300998029903F008F8FFE7FFE702980130C0
S31508002C40029004984008049058E7FFE7099800683E
S31508002C5006F01AFBC00F08B3FFE70798D0F8041868
S31508002C6021F00101C0F804180998D0F8F8030128E2
S31508002C7009D1FFE709980021C0F8F813099800213F
S31508002C80FFF746FB03E0099800F062FBFFE70998A7
S31508002C900068416901F000414161FFE70998006851
S31508002CA006F0F2FA0005002811D5FFE70798D0F8D4
S31508002CB00808C00720B1FFE7099800F0D5FBFFE731
S31508002CC009980068416901F400614161FFE70998C4
S31508002CD0006806F0D9FA0001002821D5FFE709980F
S31508002CE00068416901F0006141610998D0F8F8036C
S31508002CF088B9FFE709980121C0F8F8130998006810
S31508002D00406DC0F383000999C1F8FC0309980121B5
S31508002D10FFF7FEFA03E0099800F0A6FBFFE7FFE7D6
S31508002D200998006806F0B0FAC004002840F18680C9
S31508002D30FFE70798D0F8041821F00101C0F8041835
S31508002D4009980068102106F0C7F900200590FFE7EA
S31508002D50059809994968884231D2FFE70798059985
S31508002D6000EB41104FF67F31C0F808190798059A0D
S31508002D7000EB4210D0F8002922F40012C0F800290E
S31508002D800798059A00EB4210C0F8081B07980599A2
S31508002D9000EB4110D0F8001B21F40011C0F8001B0D
S31508002DA00798059900EB4110D0F8001B41F0006127
S31508002DB0C0F8001BFFE7059801300590C8E707989B
S31508002DC0D0F81C1841F00111C0F81C180998006BBE
S31508002DD078B1FFE70798D0F8841841F00B01C0F8DE
S31508002DE084180798D0F8441841F00B01C0F8441825
S31508002DF00FE00798D0F8141842F22B021143C0F8D6
S31508002E0014180798D0F8101841F00B01C0F81018DC
S31508002E10FFE70798D0F8001821F4FE61C0F80018FB
S31508002E20099A1068117C02F5727205F06DFE099810
S31508002E300068416901F480514161FFE7099800681B
S31508002E4006F022FA800400281ED5FFE709980068D4
S31508002E5005F05AFA0998006806F07EF90999C860DB
S31508002E600998046801F0A4FC01460998027B2046EB
S31508002E7006F002FB099800F047FA099800684169CC
S31508002E8001F400514161FFE70998006806F0FCF972
S31508002E90000700280AD5FFE7099800F065FA09989F
S31508002EA00068416901F008014161FFE70998006877
S31508002EB006F0EAF9C00200280ED5FFE700200290C6
S31508002EC009989DF8081000F04FF8099800684169BC
S31508002ED001F480114161FFE70998006806F0D4F90A
S31508002EE0800200280ED5FFE70020029009989DF879
S31508002EF0081000F049F809980068416901F40011C2
S31508002F004161FFE70998006806F0BEF9400000280D
S31508002F100AD5FFE70998FFF76BFA0998006841692F
S31508002F2001F080414161FFE70998006806F0ACF9B5
S31508002F304007002815D5FFE7099800684068009003
S31508002F409DF800004007002804D5FFE70998FFF719
S31508002F5083FAFFE70098099909684A6810434860A8
S31508002F60FFE7FFE70AB010BD80B582B001908DF883
S31508002F7003100198D0F808049DF8031004F0D8FB54
S31508002F8002B080BD0000000080B582B001908DF8C7
S31508002F9003100198D0F808049DF8031004F0F0FB1C
S31508002FA002B080BD000000002DE9F04F8FB041F25D
S31508002FB09070C2F200400D900D9818B9FFE70120F5
S31508002FC00E903FE10D9800680C900D98D0F8C0035C
S31508002FD040B9FFE70D980021C0F8BC130D9800F022
S31508002FE037F9FFE70D980321C0F8C0130C98C06B9A
S31508002FF0C005002804D4FFE70D9800210161FFE70A
S315080030000D98006805F07CFCDDF834C0DCF800009B
S31508003010DCF80410DCF80820DCF80C30DCF810E0EA
S31508003020DCF81480DCF81890DCF81CA0DCF820B07A
S31508003030DCF82440DCF82850DCF82C60DCF830702A
S31508003040DCF834C0CDF824C0089707960695059491
S31508003050CDF810B0CDF80CA0CDF80890CDF80480C6
S31508003060CDF800E005F068F938B1FFE70D980221C0
S31508003070C0F8C01301200E90E4E00D98006806F031
S315080030806FF900208DF82F00FFE79DF82F000D99A6
S315080030904968884245D2FFE70D989DF82F10C1EB85
S315080030A0C10100EB8100012180F83D109DF82F0039
S315080030B00D99C0EBC00201EB820181F83C009DF836
S315080030C02F000D99C0EBC00201EB8201A1F8420066
S315080030D00D989DF82F10C1EBC10100EB810000216E
S315080030E080F83F100D989DF82F20C2EBC20200EB26
S315080030F0820041640D989DF82F20C2EBC20200EBB6
S31508003100820081640D989DF82F20C2EBC20200EB65
S3150800311082000165FFE79DF82F0001308DF82F002A
S31508003120B3E700208DF82F00FFE79DF82F000D99D3
S31508003130496888423ED2FFE70D989DF82F10C1EBEB
S31508003140C10100EB8100002180F8FD119DF82F00D8
S315080031500D9AC0EBC00302EB830282F8FC010D98BE
S315080031609DF82F20C2EBC20200EB820080F8FF1107
S315080031700D989DF82F20C2EBC20200EB8200C0F822
S3150800318004120D989DF82F20C2EBC20200EB8200B4
S31508003190C0F808120D989DF82F20C2EBC20200EB6A
S315080031A08200C0F81012FFE79DF82F0001308DF855
S315080031B02F00BAE70D9F38687968BA68FB68D7F8B0
S315080031C010C0D7F814E0D7F81880D7F81C90D7F8AD
S315080031D020A0D7F824B0BE6AFD6A3C6B7F6B0997BE
S315080031E0089407950696CDF814B0CDF810A0CDF83A
S315080031F00C90CDF80880CDF804E0CDF800C005F0B5
S3150800320027FA38B1FFE70D980221C0F8C01301204C
S315080032100E9017E00D98002180F838100D980121BE
S31508003220C0F8C0130D98406A012804D1FFE70D982D
S31508003230FFF752F8FFE70D98006805F0F5F900204A
S315080032400E90FFE70E980FB0BDE8F08F0000000063
S3150800325080B5B8B0379000203690359034903390CA
S31508003260329003A8BC21FDF7C0FC379800680021FE
S31508003270C4F20801884244D1FFE74FF48020039046
S315080032804FF44010249003A800F066F910B1FFE748
S31508003290FEF70AFD00F054F9FFE744F2E040C5F6F0
S315080032A00200016841F001010160006800F00100B8
S315080032B002900298FFE74FF4C050329002203390F4
S315080032C00020349035900A2036900020C5F602007A
S315080032D032A9FEF741FDFFE744F2D840C5F60200E1
S315080032E0016841F000610160006800F0006001902B
S315080032F00198FFE765200021FEF7CAFFFEF7BCFF2D
S31508003300FFE738B080BD000080B582B0019001208B
S3150800331000900198C06818B9FFE7002000900AE0FD
S315080033200198C068022803D1FFE70120009001E058
S31508003330FEF7BAFCFFE70198D0F80804009904F0F4
S3150800334003FB0198D0F8080404F07EFA02B080BDA9
S3150800335080B582B001900198D0F8080404F0BCFA50
S3150800336002B080BD0000000080B582B001900198CF
S31508003370D0F8080404F0C4FA02B080BD00000000CA
S3150800338080B584B002908DF80710FFE70298D0F850
S31508003390BC03012803D1FFE70220039019E0029835
S315080033A00121C0F8BC13FFE7FFE79DF80700029963
S315080033B081F83800029800689DF8071006F030F882
S315080033C0FFE702980021C0F8BC13FFE7002003902E
S315080033D0FFE7039804B080BD80B582B001900199DB
S315080033E0D1F8080401F5727104F0CEFA02B080BD76
S315080033F080B584B00290029800680190FFE70298B1
S31508003400D0F8BC03012803D1FFE70220039026E089
S3150800341002980121C0F8BC13FFE7FFE70298806A0B
S3150800342001280BD1FFE702988069012806D0FFE73B
S315080034300198816B41F480318163FFE70298006847
S3150800344005F002FE0298006805F0DAF8FFE7029830
S315080034500021C0F8BC13FFE700200390FFE703989C
S3150800346004B080BD0000000080B582B001900198CC
S31508003470D0F8080404F0F4FA01980068D0F8001EA1
S3150800348041F00101C0F8001E0198006A48B1FFE743
S315080034904EF61050CEF20000016841F006010160B8
S315080034A0FFE702B080BD000080B584B0022002901C
S315080034B044F60C00C5F60200006800F0040000217E
S315080034C0B1EB900F11D1FFE744F60C00C5F60200E8
S315080034D0006800F007000299884203D0FFE7012040
S315080034E003902BE00020039028E044F60C00C5F674
S315080034F00200016821F00701029A11430160FEF7F4
S315080035002FFE0190FFE744F60400C5F602000068A6
S3150800351000F400500021B1EB503F0CD1FFE7FEF755
S315080035201FFE0199401AB0F57A7F03D9FFE70120FB
S31508003530039003E0E7E700200390FFE704B080BDAF
S3150800354044F60C00C5F60200016841F0807101607E
S31508003550704700000000000080B586B00490002087
S31508003560019000900498C078000700283ED5FFE730
S315080035700498406E60B1FFE7B0F5801F11D0FFE7F1
S31508003580B0F5001F14D0FFE7B0F5401F17D017E0BD
S3150800359044F22C40C5F60200016841F4003101608E
S315080035A011E004980430022102F0E6FB01900AE0DB
S315080035B004982430022102F0BFFC019003E002E0E7
S315080035C001200190FFE7019860B9FFE744F25040F7
S315080035D0C5F60200016821F44011049A526E11439F
S315080035E0016002E001980090FFE7FFE70498407841
S315080035F0C007002838D0FFE70498406D04281DD876
S31508003600DFE800F0030C131A1B0044F22C40C5F641
S315080036100200016841F40031016012E004980430A8
S31508003620002102F0A9FB01900BE004982430002148
S3150800363002F082FC019004E003E002E00120019020
S31508003640FFE7019860B9FFE744F25040C5F602006B
S31508003650016821F00701049A526D1143016002E0E6
S3150800366001980090FFE7FFE7049840788007002854
S3150800367040D5FFE70498806D68B1FFE7402813D06E
S31508003680FFE7802817D0FFE7C0281BD0FFE7B0F573
S31508003690807F18D018E044F22C40C5F60200016875
S315080036A041F40031016012E004980430002102F070
S315080036B063FB01900BE004982430002102F03CFCE7
S315080036C0019004E003E002E001200190FFE7019881
S315080036D060B9FFE744F25040C5F60200016821F4DC
S315080036E0E071049A926D1143016002E0019800901E
S315080036F0FFE7FFE7049840784007002845D5FFE72D
S315080037000498D0F8A40080B1FFE7B0F5001F15D0E3
S31508003710FFE7B0F5800F18D0FFE7B0F5C00F1BD054
S31508003720FFE7B0F5000F18D018E044F22C40C5F6B4
S315080037300200016841F40031016012E00498043087
S31508003740002102F019FB01900BE0049824300021B7
S3150800375002F0F2FB019004E003E002E00120019090
S31508003760FFE7019868B9FFE744F25840C5F602003A
S31508003770016821F46001049AD2F8A420114301607B
S3150800378002E001980090FFE7FFE7049840780007F9
S31508003790002845D5FFE70498D0F8A80080B1FFE7D0
S315080037A0B0F1807F15D0FFE7B0F1007F18D0FFE7B2
S315080037B0B0F1407F1BD0FFE7B0F1806F18D018E05A
S315080037C044F22C40C5F60200016841F4003101605C
S315080037D012E004980430002102F0CEFA01900BE0C2
S315080037E004982430002102F0A7FB019004E003E0CE
S315080037F002E001200190FFE7019868B9FFE744F26B
S315080038005840C5F60200016821F0E061049AD2F832
S31508003810A8201143016002E001980090FFE7FFE746
S315080038200498C0788007002835D5FFE70498806C8F
S31508003830D0B1FFE7102806D0FFE720280CD0FFE715
S31508003840302810D011E044F22C40C5F60200016879
S3150800385041F4003101600BE004980430022102F0C3
S315080038608BFA019004E003E002E001200190FFE7F3
S31508003870019860B9FFE744F24C40C5F602000168BA
S3150800388021F03001049A926C1143016002E001981C
S315080038900090FFE7FFE704984078C006002843D564
S315080038A0FFE70498C06D80B1FFE7B0F5805F15D0DB
S315080038B0FFE7B0F5005F18D0FFE7B0F5405F1BD013
S315080038C0FFE7B0F5804F18D018E044F22C40C5F653
S315080038D00200016841F40031016012E004980430E6
S315080038E0002102F049FA01900BE0049824300021E7
S315080038F002F022FB019004E003E002E001200190BF
S31508003900FFE7019860B9FFE744F25040C5F60200A8
S31508003910016821F4E041049AD26D1143016002E086
S3150800392001980090FFE7FFE7049840788006002892
S3150800393040D5FFE70498006EA0B1FFE7B0F5803FD9
S3150800394011D0FFE7B0F5003F14D0FFE7B0F5403FD0
S3150800395017D0FFE7B0F5802F14D0FFE7B0F5A02FFA
S3150800396011D011E013E004980430012102F004FAA2
S3150800397001900CE004982430012102F0DDFA019050
S3150800398005E004E003E002E001200190FFE701986A
S3150800399060B9FFE744F25040C5F60200016821F419
S315080039A0E021049A126E1143016002E0019800902A
S315080039B0FFE7FFE7049840784006002842D5FFE76E
S315080039C00498D0F8AC00A0B1FFE7B0F1805F11D041
S315080039D0FFE7B0F1005F14D0FFE7B0F1405F17D002
S315080039E0FFE7B0F1804F14D0FFE7B0F1A04F11D038
S315080039F011E013E004980430012102F0BDF90190AA
S31508003A000CE004982430012102F096FA019005E0B2
S31508003A1004E003E002E001200190FFE7019868B99D
S31508003A20FFE744F25840C5F60200016821F0E0417C
S31508003A30049AD2F8AC201143016002E00198009084
S31508003A40FFE7FFE7049840780006002833D5FFE72C
S31508003A500498C06EC0B1FFE7B0F1805F04D0FFE7FD
S31508003A60B0F1005F09D010E044F22C40C5F6020020
S31508003A70016841F4003101600AE00498043001212C
S31508003A8002F07AF9019003E002E001200190FFE7D5
S31508003A90019860B9FFE744F25040C5F60200016894
S31508003AA021F04051049AD26E1143016002E0019858
S31508003AB00090FFE7FFE70498C078C00780B3FFE7E8
S31508003AC00498406C032815D8DFE800F013020B129F
S31508003AD044F22C40C5F60200016841F40031016049
S31508003AE00BE004980430022102F046F9019004E044
S31508003AF003E002E001200190FFE7019860B9FFE7C3
S31508003B0044F24C40C5F60200016821F00301049A0C
S31508003B10526C1143016002E001980090FFE7FFE74D
S31508003B20049880784006002840F1AE80FFE744F606
S31508003B300000C5F60200016841F480710160FEF7D5
S31508003B400FFB0290FFE744F60000C5F60200006886
S31508003B50C00500280BD4FFE7FEF702FB0299401ABE
S31508003B60652803D3FFE70320019001E0EBE7FFE7B1
S31508003B700198002840F08480FFE744F27040C5F6BB
S31508003B800200006800F440700499D1F8B01001F4FE
S31508003B904071884213D0FFE744F27040C5F6020030
S31508003BA0016821F440710391016841F48031016094
S31508003BB0016821F48031016003990160FFE70498E8
S31508003BC0D0F8B000B0F5807F1FD1FFE7FEF7C8FA3E
S31508003BD00290FFE744F27040C5F60200006800F064
S31508003BE002000021B1EB500F0DD1FFE7FEF7B8FA3E
S31508003BF00299401A41F28931884203D3FFE703202C
S31508003C00019001E0E6E7FFE7FFE70198A0BBFFE7C1
S31508003C10FFE70498D0F8B00000F44070B0F5407F94
S31508003C2013D1FFE744F21040C5F60200016821F4FB
S31508003C307C51049AD2F8B0204FF6F043C0F6FF73D1
S31508003C401A4041EA1211016008E044F21040C5F634
S31508003C500200016821F47C510160FFE70498D0F85E
S31508003C60B0006FF31F3044F27041C5F602010A68CE
S31508003C7010430860FFE702E001980090FFE702E0C2
S31508003C8001980090FFE7FFE704980078C00700282E
S31508003C9000F04480FFE70498806F282828D8DFE8DA
S31508003CA000F0152727272727272716272727272717
S31508003CB027271D2727272727272724272727272793
S31508003CC027272527272727272727260013E00498AD
S31508003CD00430012102F050F801900CE004982430D9
S31508003CE0012102F029F9019005E004E003E002E071
S31508003CF001200190FFE7019860B9FFE744F25440BC
S31508003D00C5F60200016821F03801049A926F114342
S31508003D10016002E001980090FFE7FFE70498007849
S31508003D208007002831D5FFE70498406F052816D884
S31508003D30DFE800F003040B12131413E004980430B0
S31508003D40012102F019F801900CE0049824300121B1
S31508003D5002F0F2F8019005E004E003E002E0012039
S31508003D600190FFE7019860B9FFE744F25440C5F6B1
S31508003D700200016821F00701049A526F114301609D
S31508003D8002E001980090FFE7FFE7049800784007F3
S31508003D90002833D5FFE70498D0F89000052816D8F0
S31508003DA0DFE800F003040B12131413E00498043040
S31508003DB0012101F0E1FF01900CE004982430012173
S31508003DC002F0BAF8019005E004E003E002E0012001
S31508003DD00190FFE7019868B9FFE744F25840C5F635
S31508003DE00200016821F00701049AD2F890201143D5
S31508003DF0016002E001980090FFE7FFE70498007869
S31508003E008006002842D5FFE70498D0F88C00A0B1B8
S31508003E10FFE7B0F1805F11D0FFE7B0F1005F14D083
S31508003E20FFE7B0F1405F17D0FFE7B0F1804F14D03D
S31508003E30FFE7B0F1A04F11D011E013E00498043069
S31508003E40002101F099FF01900CE00498243002212A
S31508003E5002F072F8019005E004E003E002E00120B8
S31508003E600190FFE7019868B9FFE744F25440C5F6A8
S31508003E700200016821F0E041049AD2F88C2011432F
S31508003E80016002E001980090FFE7FFE704980078D8
S31508003E904006002842D5FFE70498D0F89800A0B15C
S31508003EA0FFE7B0F5806F11D0FFE7B0F5006F14D0CB
S31508003EB0FFE7B0F5406F17D0FFE7B0F5805F14D085
S31508003EC0FFE7B0F5A05F11D011E013E004980430C5
S31508003ED0002101F051FF01900CE0049824300221E2
S31508003EE002F02AF8019005E004E003E002E0012070
S31508003EF00190FFE7019868B9FFE744F25840C5F614
S31508003F000200016821F4E051049AD2F8982011437E
S31508003F10016002E001980090FFE7FFE70498007847
S31508003F200006002842D5FFE70498D0F89C00A0B107
S31508003F30FFE7B0F5005F11D0FFE7B0F5804F14D06A
S31508003F40FFE7B0F5C04F17D0FFE7B0F5004F14D024
S31508003F50FFE7B0F5204F11D011E013E004980430C4
S31508003F60002101F009FF01900CE004982430022199
S31508003F7001F0E2FF019005E004E003E002E0012021
S31508003F800190FFE7019868B9FFE744F25840C5F683
S31508003F900200016821F46041049AD2F89C2011437A
S31508003FA0016002E001980090FFE7FFE704980078B7
S31508003FB0000700281FD5FFE70498D0F88000B0F561
S31508003FC0805F0BD1FFE704982430022101F0B4FF8B
S31508003FD018B1FFE701200090FFE7FFE744F25440DD
S31508003FE0C5F60200016821F44051049AD2F88020EF
S31508003FF011430160FFE704980078C00600281FD522
S31508004000FFE70498D0F89400B0F5807F0BD1FFE75E
S3150800401004982430022101F08FFF18B1FFE7012030
S315080040200090FFE7FFE744F25840C5F60200016832
S3150800403021F44071049AD2F8942011430160FFE7F5
S31508004040049880780007002833D5FFE70498D0F84D
S31508004050A00040B1FFE7B0F5803F0BD0FFE7B0F511
S31508004060003F0ED00EE004980430002101F084FED3
S3150800407001900AE004982430022101F05DFF0190C6
S3150800408003E002E001200190FFE7019868B9FFE725
S3150800409044F25840C5F60200016821F44031049AFA
S315080040A0D2F8A0201143016002E001980090FFE7D2
S315080040B0FFE7049880784007002837D5FFE704987B
S315080040C0D0F88400B0F5801F08D0FFE7B0F5001FD0
S315080040D00DD0FFE7B0F5401F10D010E044F22C4099
S315080040E0C5F60200016841F4003101600AE004984F
S315080040F02430012101F020FF019003E002E00120B5
S315080041000190FFE7019868B9FFE744F25440C5F605
S315080041100200016821F44011049AD2F88420114360
S31508004120016002E001980090FFE7FFE704988078B5
S31508004130C00770B3FFE70498C06C20B1FFE7B0F57D
S31508004140803F09D00FE044F22C40C5F60200016812
S3150800415041F40031016009E004980430022101F0BD
S315080041600BFE019002E001200190FFE7019860B97B
S31508004170FFE744F24C40C5F60200016821F480319D
S31508004180049AD26C1143016002E001980090FFE79F
S31508004190FFE70498C078800600280BD5FFE7049847
S315080041A02430022101F0C8FE18B1FFE70120009073
S315080041B0FFE7FFE7049880788007002832D5FFE7F5
S315080041C00498C06FB8B1FFE7B0F5807F08D0FFE765
S315080041D0B0F5007F0DD0FFE7B0F5407F0AD00BE0C1
S315080041E044F22C40C5F60200016841F40031016032
S315080041F005E004E003E002E001200190FFE70198F2
S3150800420060B9FFE744F25440C5F60200016821F49C
S315080042104071049AD26F1143016002E00198009040
S31508004220FFE7FFE704988078C00600280CD5FFE76B
S3150800423044F25040C5F60200016821F00041049A94
S31508004240126F11430160FFE70498C078C006002882
S315080042500DD5FFE744F21040C5F60200016821F4C7
S315080042608041049AD2F8B42011430160FFE704980C
S315080042708078800600280CD5FFE744F25040C5F642
S315080042800200016821F08071049A926E1143016060
S31508004290FFE70498C0784006002811D5FFE7FFE736
S315080042A044F21040C5F60200016821F4004101609D
S315080042B00499D1F8B810026811430160FFE7FFE7D7
S315080042C00498C078000600280CD5FFE744F24C4055
S315080042D0C5F60200016821F04051049A126D114397
S315080042E00160FFE704988078000600280DD5FFE7EF
S315080042F044F25440C5F60200016821F44001049ACC
S31508004300D2F8882011430160FFE7009818B9FFE743
S315080043100020059002E001200590FFE7059806B009
S3150800432080BD00000000000080B586B0049004201F
S315080043300390049818B9FFE70120059032E2039824
S3150800434042F20001C5F20021096801F00F01884216
S3150800435015D9FFE742F20000C5F20020016821F0F6
S315080043600F01039A11430160006800F00F000399DA
S31508004370884203D0FFE70120059013E2FFE704987F
S3150800438000784007002819D5FFE70498006944F229
S315080043901841C5F60201096801F0700188420CD976
S315080043A0FFE744F21840C5F60200016821F07001E3
S315080043B0049A126911430160FFE7FFE70498007841
S315080043C00007002819D5FFE70498406944F21C4104
S315080043D0C5F60201096801F0700188420CD9FFE7A9
S315080043E044F21C40C5F60200016821F07001049AE7
S315080043F0526911430160FFE7FFE704980078C00699
S31508004400002819D5FFE70498806944F21C41C5F6CF
S315080044100201096801F4E06188420CD9FFE744F219
S315080044201C40C5F60200016821F4E061049A92690D
S3150800443011430160FFE7FFE704980078800600282B
S3150800444019D5FFE70498C06944F22041C5F6020170
S31508004450096801F0700188420CD9FFE744F2204050
S31508004460C5F60200016821F07001049AD269114369
S315080044700160FFE7FFE7049800788007002819D550
S31508004480FFE70498C06844F21841C5F602010968B6
S3150800449001F00F0188420CD9FFE744F21840C5F62F
S315080044A00200016821F00F01049AD26811430160E5
S315080044B0FFE7FFE704980078C007002800F0878028
S315080044C0FFE744F21840C5F60200016821F470615E
S315080044D0049A92681143016004984068022810D132
S315080044E0FFE744F20040C5F60200006800F4003019
S315080044F00021B1EB504F03D1FFE70120059051E1B0
S315080045003BE004984068032810D1FFE744F20040D6
S31508004510C5F60200006800F000700021B1EB506F8C
S3150800452003D1FFE7012005903CE125E004984068A7
S31508004530012810D1FFE744F20040C5F602000068E2
S3150800454000F480700021B1EB102F03D1FFE70120A2
S31508004550059027E10FE044F20040C5F60200006826
S3150800456000F004000021B1EB900F03D1FFE7012012
S31508004570059017E1FFE7FFE7FFE744F21040C5F6AD
S315080045800200016821F00701049A5268114301608C
S31508004590FDF7E6FD0190FFE744F21040C5F602007C
S315080045A0006800F0380004994968B0EBC10F0DD0D7
S315080045B0FFE7FDF7D5FD0199401A41F28931884296
S315080045C003D3FFE703200590ECE0E5E7FFE704984F
S315080045D000788007002819D5FFE70498C06844F2D8
S315080045E01841C5F60201096801F00F0188420CD28C
S315080045F0FFE744F21840C5F60200016821F00F01F2
S31508004600049AD26811430160FFE7FFE7039842F274
S315080046100001C5F20021096801F00F01884215D290
S31508004620FFE742F20000C5F20020016821F00F0101
S31508004630039A11430160006800F00F00039988424D
S3150800464003D0FFE701200590ACE0FFE70498007867
S315080046504007002819D5FFE70498006944F2184175
S31508004660C5F60201096801F0700188420CD2FFE71D
S3150800467044F21840C5F60200016821F07001049A58
S31508004680126911430160FFE7FFE704980078000705
S31508004690002819D5FFE70498406944F21C41C5F67D
S315080046A00201096801F0700188420CD2FFE744F262
S315080046B01C40C5F60200016821F07001049A52698F
S315080046C011430160FFE7FFE704980078C006002859
S315080046D019D5FFE70498806944F21C41C5F6020122
S315080046E0096801F4E06188420CD2FFE744F21C40F5
S315080046F0C5F60200016821F4E061049A9269114343
S315080047000160FFE7FFE7049800788006002819D5BE
S31508004710FFE70498C06944F22041C5F6020109681A
S3150800472001F0700188420CD2FFE744F22040C5F63A
S315080047300200016821F07001049AD26911430160F0
S31508004740FFE7FFE700F060F844F21841C5F60201FA
S315080047500A68C2F303224DF6C823C0F600039A5C22
S3150800476002F01F02D04000900098096801F00F017E
S31508004770595C01F01F01C84040F20401C2F2004131
S315080047800860009840F20001C2F20041086040F259
S315080047900800C2F200400068FDF72AFD0290029860
S315080047A00590FFE7059806B080BD000000000000F0
S315080047B080B582B000F028F844F21841C5F6020127
S315080047C00A68C2F303224DF6C823C0F600039A5CB2
S315080047D002F01F02D04001900198096801F00F010C
S315080047E0595C01F01F01C84040F20401C2F20041C1
S315080047F00860019840F20002C2F2004210600868A0
S3150800480002B080BD0000000088B044F21040C5F632
S315080048100200006800F03800182800F26781DFE817
S3150800482010F01900650165016501650165016501FD
S3150800483065013B0065016501650165016501650165
S31508004840650141006501650165016501650165014F
S315080048506501470044F20040C5F60200006800F012
S3150800486020000021B1EB501F0FD0FFE744F20040B3
S31508004870C5F602000068C0F3C10049F20001C0F2A3
S31508004880D03121FA00F0009005E049F20000C0F2AC
S31508004890D0300090FFE72FE140F60010C0F23D004F
S315080048A0009029E147F64000C0F27D10009023E110
S315080048B044F22840C5F60200016801F0030106919A
S315080048C00068C0F30510059044F22C40C5F60200B6
S315080048D0006800F001000490049844F23441C5F6DB
S315080048E00201096889B2C908484300EE100AB8EE01
S315080048F0400A8DED020A0598002800F0F380FFE7CC
S31508004900069838B1FFE7012869D0FFE7022800F0CA
S315080049108A80ACE044F20040C5F60200006800F068
S3150800492020000021B1EB501F34D0FFE744F20040CD
S31508004930C5F602000068C0F3C10049F20001C0F2E2
S31508004940D03121FA00F003909DED030AB8EE400A33
S315080049509DED051AB8EE411A80EE010A44F2304080
S31508004960C5F6020000686FF35F2001EE100AB8EE84
S31508004970411A9DED022A9FED633A82EE032A31EE33
S31508004980021AB7EE002A31EE021A20EE010A8DED60
S31508004990010A23E09DED050AB8EE400A9FED5B1A71
S315080049A081EE000A44F23040C5F6020000686FF353
S315080049B05F2001EE100AB8EE411A9DED022A9FED1E
S315080049C0513A82EE032A31EE021AB7EE002A31EE88
S315080049D0021A20EE010A8DED010AFFE76BE09DED54
S315080049E0050AB8EE400A9FED481A81EE000A44F21D
S315080049F03040C5F6020000686FF35F2001EE100A2A
S31508004A00B8EE411A9DED022A9FED3E3A82EE032A40
S31508004A1031EE021AB7EE002A31EE021A20EE010A2A
S31508004A208DED010A47E09DED050AB8EE400A9FEDB7
S31508004A30341A81EE000A44F23040C5F602000068D6
S31508004A406FF35F2001EE100AB8EE411A9DED022AB7
S31508004A509FED2C3A82EE032A31EE021AB7EE002AAF
S31508004A6031EE021A20EE010A8DED010A23E09DEDD2
S31508004A70050AB8EE400A9FED241A81EE000A44F2B0
S31508004A803040C5F6020000686FF35F2001EE100A99
S31508004A90B8EE411A9DED022A9FED1A3A82EE032AD4
S31508004AA031EE021AB7EE002A31EE021A20EE010A9A
S31508004AB08DED010AFFE744F23040C5F602000068B2
S31508004AC080B2012101EB502007909DED010A9DED72
S31508004AD0071AB8EE411A80EE010ABCEEC00A8DED3F
S31508004AE0000A02E000200090FFE705E040F600100B
S31508004AF0C0F23D000090FFE7009808B0704700BF7D
S31508004B0020BCBE4B000000460024744A0024744CA6
S31508004B1080B58CB00A900A9820B9FFE701200B905F
S31508004B2000F04DBD0A980078C007002800F0B6804E
S31508004B30FFE744F21040C5F60200006800F03800AE
S31508004B40069044F22840C5F60200006805900698CB
S31508004B5010280AD0FFE7069818281BD1FFE7059802
S31508004B6000F00300022815D1FFE744F20040C5F61D
S31508004B700200006800F400300021B1EB504F08D065
S31508004B80FFE70A98406820B9FFE701200B9000F07C
S31508004B9016BD82E0FFE70A984068B0F5803F09D164
S31508004BA0FFE744F20040C5F60200016841F480318F
S31508004BB0016032E00A98406868B9FFE744F20040AD
S31508004BC0C5F60200016821F480310160016821F40C
S31508004BD08021016020E00A984068B0F5A02F0DD129
S31508004BE0FFE744F20040C5F60200016841F480215F
S31508004BF00160016841F4803101600CE044F2004034
S31508004C00C5F60200016821F480310160016821F4CB
S31508004C1080210160FFE7FFE7FFE7FFE70A984068A2
S31508004C20E8B1FFE7FDF79CFA0990FFE744F2004078
S31508004C30C5F60200006800F400300021B1EB504FC1
S31508004C400CD1FFE7FDF78CFA0999401A652804D3B9
S31508004C50FFE703200B9000F0B2BCE7E71CE0FDF786
S31508004C607FFA0990FFE744F20040C5F602000068A3
S31508004C7000F400300021B1EB504F0CD0FFE7FDF7F0
S31508004C806FFA0999401A652804D3FFE703200B90A9
S31508004C9000F095BCE7E7FFE7FFE7FFE70A9800782B
S31508004CA08007002840F11181FFE744F21040C5F65D
S31508004CB00200006800F03800049044F22840C5F667
S31508004CC0020000680390049850B1FFE7049818287A
S31508004CD076D1FFE79DF80C008007002870D1FFE722
S31508004CE044F20040C5F60200006800F00400002106
S31508004CF0B1EB900F08D0FFE70A98C06820B9FFE724
S31508004D0001200B9000F05BBC44F20040C5F602009F
S31508004D10016821F019010A9AD26811430160FDF76A
S31508004D201FFA0990FFE744F20040C5F60200006842
S31508004D3000F004000021B1EB900F0CD1FFE7FDF75E
S31508004D400FFA0999401A032804D3FFE703200B90AA
S31508004D5000F035BCE7E7FFE7FDF7FAF941F2030192
S31508004D6088421DD8FFE70A98006940280AD1FFE75C
S31508004D7044F20440C5F602000168202262F31131AC
S31508004D8001600CE044F20440C5F60200016821F413
S31508004D907C310A9A126941EA02310160FFE70CE0A8
S31508004DA044F20440C5F60200016821F0FE410A9A61
S31508004DB0126941EA02610160FFE7FFE7FFE783E066
S31508004DC00A98C06800285AD0FFE744F20040C5F6A2
S31508004DD00200016821F019010A9AD268114301609C
S31508004DE0FDF7BEF90990FFE744F20040C5F6020058
S31508004DF0006800F004000021B1EB900F0BD1FFE72B
S31508004E00FDF7AEF90999401A032803D3FFE70320F3
S31508004E100B90D4E3E8E7FFE7FDF79AF941F20301BF
S31508004E2088421DD8FFE70A98006940280AD1FFE79B
S31508004E3044F20440C5F602000168202262F31131EB
S31508004E4001600CE044F20440C5F60200016821F452
S31508004E507C310A9A126941EA02310160FFE70CE0E7
S31508004E6044F20440C5F60200016821F0FE410A9AA0
S31508004E70126941EA02610160FFE7FFE723E044F2B5
S31508004E800040C5F60200016821F001010160FDF746
S31508004E9067F90990FFE744F20040C5F6020000688A
S31508004EA000F004000021B1EB900F0BD0FFE7FDF7EF
S31508004EB057F90999401A032803D3FFE703200B90F3
S31508004EC07DE3E8E7FFE7FFE7FFE70A980078C00613
S31508004ED0002840F1E880FFE744F21040C5F60200DA
S31508004EE0006800F03800029044F22840C5F6020037
S31508004EF000680190029808280AD0FFE70298182847
S31508004F004FD1FFE7019800F00300012849D1FFE7D8
S31508004F1044F20040C5F60200006800F480700021E3
S31508004F20B1EB102F08D0FFE70A98C069802803D094
S31508004F30FFE701200B9042E3FFE7FDF709F941F28D
S31508004F40030188421DD8FFE70A98006A20280AD17B
S31508004F50FFE744F20440C5F602000168102262F336
S31508004F609E6101600CE044F20440C5F60200016847
S31508004F7021F0F8410A9A126A41EA82610160FFE764
S31508004F800CE044F20C40C5F60200016821F07C51A1
S31508004F900A9A126A41EA02610160FFE7FFE7FFE742
S31508004FA080E00A98C069002857D0FFE744F200401D
S31508004FB0C5F60200016841F080010160FDF7D0F8EE
S31508004FC00990FFE744F20040C5F60200006800F4C5
S31508004FD080700021B1EB102F0BD1FFE7FDF7C0F869
S31508004FE00999401A032803D3FFE703200B90E6E24A
S31508004FF0E8E7FFE7FDF7ACF841F2030188421DD860
S31508005000FFE70A98006A20280AD1FFE744F204401D
S31508005010C5F602000168102262F39E6101600CE089
S3150800502044F20440C5F60200016821F0F8410A9AE4
S31508005030126A41EA82610160FFE70CE044F20C4023
S31508005040C5F60200016821F07C510A9A126A41EA03
S3150800505002610160FFE7FFE723E044F20040C5F67E
S315080050600200016821F080010160FDF779F80990D6
S31508005070FFE744F20040C5F60200006800F48070BD
S315080050800021B1EB102F0BD0FFE7FDF769F809995E
S31508005090401A032803D3FFE703200B908FE2E8E7C3
S315080050A0FFE7FFE7FFE70A980078000700284DD5D5
S315080050B0FFE70A98406920B3FFE744F27440C5F653
S315080050C00200016841F001010160FDF749F8099005
S315080050D0FFE744F27440C5F60200006800F00200DB
S315080050E00021B1EB500F0BD1FFE7FDF739F809990D
S315080050F0401A032803D3FFE703200B905FE2E8E793
S3150800510023E044F27440C5F60200016821F001016B
S315080051100160FDF725F80990FFE744F27440C5F6EB
S315080051200200006800F002000021B1EB500F0BD01E
S31508005130FFE7FDF715F80999401A032803D3FFE797
S3150800514003200B903BE2E8E7FFE7FFE70A980078C1
S31508005150800600284DD5FFE70A98806920B3FFE747
S3150800516044F20040C5F60200016841F4805101602E
S31508005170FCF7F6FF0990FFE744F20040C5F6020087
S31508005180006800F400500021B1EB503F0BD1FFE757
S31508005190FCF7E6FF0999401A032803D3FFE7032023
S315080051A00B900CE2E8E723E044F20040C5F6020063
S315080051B0016821F480510160FCF7D2FF0990FFE7EE
S315080051C044F20040C5F60200006800F400500021D1
S315080051D0B1EB503F0BD0FFE7FCF7C2FF0999401A25
S315080051E0032803D3FFE703200B90E8E1E8E7FFE78E
S315080051F0FFE70A9800784007002840F1A480FFE7F7
S3150800520044F60000C5F60200016841F480710160A9
S31508005210FCF7A6FF0990FFE744F60000C5F6020072
S315080052200068C00500280BD4FFE7FCF799FF099929
S31508005230401A652803D3FFE703200B90BFE1EBE78D
S31508005240FFE70A988068012809D1FFE744F2704011
S31508005250C5F60200016841F00101016031E00A98D3
S31508005260806868B9FFE744F27040C5F60200016835
S3150800527021F001010160016821F0040101601FE0CD
S315080052800A98806805280DD1FFE744F27040C5F6F4
S315080052900200016841F004010160016841F0010162
S315080052A001600CE044F27040C5F60200016821F086
S315080052B001010160016821F004010160FFE7FFE7D1
S315080052C0FFE7FFE70A988068F0B1FFE7FCF748FFB9
S315080052D00990FFE744F27040C5F60200006800F046
S315080052E002000021B1EB500F0DD1FFE7FCF738FFA4
S315080052F00999401A41F28931884203D3FFE703200E
S315080053000B905CE1E6E71DE0FCF72AFF0990FFE752
S3150800531044F27040C5F60200006800F00200002161
S31508005320B1EB500F0DD0FFE7FCF71AFF0999401AA9
S3150800533041F28931884203D3FFE703200B903EE10F
S31508005340E6E7FFE7FFE70A98406A002800F034819D
S31508005350FFE744F21040C5F60200006800F0380086
S31508005360182800F0DC80FFE70A98406A022840F017
S31508005370B180FFE744F20040C5F60200016821F05B
S3150800538080710160FCF7ECFE0990FFE744F20040EB
S31508005390C5F60200006800F000700021B1EB506FFE
S315080053A00BD0FFE7FCF7DCFE0999401A032803D364
S315080053B0FFE703200B9002E1E8E7FFE744F2284005
S315080053C0C5F60200016840F2F33291430A9A936ADD
S315080053D0D26A43EA0212114301600A98016B426BD2
S315080053E0836BD0F83CC001396FF35F214FF600603C
S315080053F0CFF6FF7000EB422080B208440021CFF6BA
S31508005400FF7101EB034101F4FE0108444FF07F41AF
S3150800541001EB0C6101F0FE41084444F23041C5F647
S3150800542002010860FFE744F22C40C5F60200016855
S3150800543021F00101016044F23441C5F602010A680F
S315080054404FF6F8739A430A9B9B6C42EAC3020A60BA
S31508005450016821F00C010A9A126C11430160016877
S3150800546021F002010A9A526C11430160016841F465
S3150800547080310160016841F400310160016841F43E
S3150800548080210160016841F00101016044F2004099
S31508005490C5F60200016841F080710160FCF760FE04
S315080054A00990FFE744F20040C5F60200006800F0E4
S315080054B000700021B1EB506F0BD1FFE7FCF750FEEF
S315080054C00999401A032803D3FFE703200B9076E0D7
S315080054D0E8E723E044F20040C5F60200016821F03F
S315080054E080710160FCF73CFE0990FFE744F200403A
S315080054F0C5F60200006800F000700021B1EB506F9D
S315080055000BD0FFE7FCF72CFE0999401A032803D3B2
